:020000040800F2
:10000000F84200209D0100081537000895320008CD
:1000100057360008550D0008B949000800000000D7
:10002000000000000000000000000000253C000867
:10003000590D00080000000017370008273C000891
:10004000B7010008B7010008B7010008B7010008B0
:10005000B7010008B70100085B0D0008B7010008F0
:10006000B7010008B7010008B7010008B701000890
:10007000B7010008B7010008B7010008B701000880
:10008000B7010008B7010008B7010008B701000870
:10009000B7010008B7010008B7010008B701000860
:1000A000B7010008B7010008B7010008B701000850
:1000B000813C0008B7010008913C0008B701000826
:1000C000B7010008B7010008B7010008B701000830
:1000D000B70100088949000899490008A9490008A2
:1000E000B7010008B7010008B7010008B701000810
:1000F000B7010008B7010008B7010008B701000800
:10010000B7010008B7010008B7010008B7010008EF
:1001100071410008B7010008B7010008B7010008E5
:10012000B7010008B7010008B7010008B7010008CF
:10013000B7010008B7010008B7010008B7010008BF
:10014000B7010008B7010008B7010008B7010008AF
:10015000B7010008B7010008B7010008B70100089F
:10016000B7010008B7010008B7010008B70100088F
:10017000B7010008B7010008B7010008000000003F
:10018000B7010008B7010008DFF80CD000F028F92B
:10019000004800478D660008F84200200648804766
:1001A00006480047FEE7FEE7FEE7FEE7FEE7FEE75C
:1001B000FEE7FEE7FEE7FEE7313C000889010008A4
:1001C0002DE9F05F0546002092469B46884606468C
:1001D000814640241BE0284641464746224600F01F
:1001E000EEF853465A46C01A914110D311461846AC
:1001F000224600F0D5F82D1A67EB01084F4622463B
:100200000120002100F0CCF817EB00094E41201E20
:10021000A4F10104DFDC484631462A46434600F09B
:1002200000B830BCBDE8C09F40EA01039B0703D083
:1002300009E008C9121F08C0042AFAD203E011F825
:10024000013B00F8013B521EF9D27047D2B201E0E7
:1002500000F8012B491EFBD270470022F6E710B5CB
:1002600013460A4604461946FFF7F0FF204610BD24
:10027000421E12F8013F002BFBD111F8013B02F89E
:10028000013B002BF9D1704730B505462A460B4695
:1002900012F8010B13F8014B08B1A042F8D01CB1C1
:1002A000002802D06D1CF1E7284630BDCAB2401EBE
:1002B00010F8011F8A4202D00029F9D100207047AE
:1002C000421C10F8011B0029FBD1801A704710B5A1
:1002D000002200E0521C835C8C5CA34201D1002B05
:1002E000F8D1D8B2E1B2401A10BD034611F8012B83
:1002F00000F8012B002AF9D11846704710B5484381
:10030000044606F03FFC002805D00021002C02D056
:10031000641E0155FAE710BD00F0004230F00040C5
:100320000AD0C10D01F56071C0F3160042EA015117
:10033000C208400711437047002001467047000083
:1003400030B5041E71F1000404DB4FF0004440425C
:1003500064EB0101141E73F1000405DB1C464FF031
:100360000043524263EB04038B4208BF824230BD1C
:1003700030B5041E71F1000404DB4FF0004440422C
:1003800064EB0101141E73F1000405DB1C464FF001
:100390000043524263EB0403994208BF904230BDD0
:1003A000202A04DB203A00FA02F100207047914035
:1003B000C2F1200320FA03F3194390407047202A2A
:1003C00004DB203A21FA02F00021704721FA02F3FF
:1003D000D040C2F12002914008431946704770474F
:1003E000064C074D06E0E06840F0010394E8070082
:1003F00098471034AC42F6D3FFF7CAFEF89F0008C6
:1004000018A0000870B58C1810F8015B15F00703F0
:1004100001D110F8013B2A1106D110F8012B03E09D
:1004200010F8016B01F8016B5B1EF9D12B0705D4A5
:100430000023521E0DD401F8013BFAE710F8013BEE
:10044000CB1A921C03E013F8015B01F8015B521E0A
:10045000F9D5A142D8D3002070BD000030B5E7B077
:10046000002403E0002087490855641CB4F5C87FC8
:10047000F8DB85A085A188A289A3CDE9002102909F
:1004800089484FF4C871026803A805F04FFC03A91E
:1004900086A005F03BFC8C4A8CA103A806F0BAF8B4
:1004A000894993A005F032FC002403E0002075493F
:1004B0000855641CB4F5C87FF8DB834873A176A3A4
:1004C000CDE9001091484FF4C87102686D4805F0FD
:1004D0002DFC05228E4801686A4805F0CDFE0546D0
:1004E0002DB98CA005F012FC002067B030BD92A0A1
:1004F00005F00CFC002403E0002062490855641C50
:10050000B4F5C87FF8DB60A065A3009094484FF471
:10051000C87102685B4805F009FC05227C48016847
:10052000584805F0A9FE054625B98EA005F0EEFB5A
:100530000020DAE795A005F0E9FB002403E00020A5
:1005400050490855641CB4F5C87FF8DB4FA399489F
:100550004FF4C87102684B4805F0E8FB05226C486F
:100560000168484805F088FE054625B992A005F0C7
:10057000CDFB0020B9E79AA005F0C8FB052264482E
:100580000168A148006805F077FE054625B99FA0DF
:1005900005F0BCFB0020A8E7AAA005F0B7FB0522E8
:1005A0005B480168B348006805F066FE054625B95A
:1005B000B1A005F0ABFB002097E7BAA005F0A6FBC1
:1005C000052253480168C048006805F055FE0546FD
:1005D00025B9BEA005F09AFB002086E7C8A005F06B
:1005E00095FB05224A480168CF48006805F044FEA3
:1005F000054625B9CDA005F089FB002075E7D9A0F7
:1006000005F084FB052242480168E248006805F0D5
:1006100033FE054625B9E0A005F078FB002064E72D
:10062000EAA005F073FB1422F5480168F54800685C
:1006300005F022FE054625B9F3A005F067FB002072
:1006400053E7FBA005F062FB002403E000200D4906
:100650000855641CB4F5C87FF8DB0FA00BA300900D
:10066000FD484FF4C8710268064805F05FFB05229B
:1006700027480168034805F0FFFD054605B9EDE18F
:10068000F1E1000078040020393939006131583235
:100690007673783049344C00494E443100000000F4
:1006A0005361786F6E000000500000205B494E4699
:1006B0004F5D5B4D5154545D636F6E74656E743A5B
:1006C0000D0A25730D0A00000806002067733269C1
:1006D000413950394365634B373776746962374A1D
:1006E0006C6432687A626B677937613900000000A8
:1006F0005B494E464F5D5B534841315D52657375B2
:100700006C743A0D0A25730D0A0000005400002095
:10071000380000205B4552524F525D5B454D5733C8
:100720003038305D416C69204175746820536574C0
:10073000204661696C0D0A005B494E464F5D5B4582
:100740004D57333038305D416C69204175746820F5
:1007500053657420537563636573730D0A0000005D
:10076000580000205B4552524F525D5B454D573358
:100770003038305D416C6920436C69656E7420537C
:100780006574204661696C0D0A0000005B494E46A5
:100790004F5D5B454D57333038305D416C692043C8
:1007A0006C69656E7420536574205375636365735B
:1007B000730D0A005C0000205B4552524F525D5B96
:1007C000454D57333038305D416C6920536F636B52
:1007D000657420536574204661696C0D0A00000041
:1007E0005B494E464F5D5B454D57333038305D4178
:1007F0006C6920536F636B65742053657420537567
:1008000063636573730D0A00600000205B455252FC
:100810004F525D5B454D57333038305D416C692038
:1008200043657274696669636174652056657269AF
:1008300066792043616E6E6F7420536574204F4655
:10084000460D0A005B494E464F5D5B454D573330C0
:1008500038305D416C692043657274696669636113
:1008600074652056657269667920536574204F4619
:10087000460D0A00640000205B4552524F525D5BFA
:10088000454D57333038305D416C692053534C200F
:1008900043616E6E6F7420536574204F46460D0A97
:1008A000000000005B494E464F5D5B454D573330BD
:1008B00038305D416C692053534C20536574204F90
:1008C00046460D0A00000000680000205B455252B9
:1008D0004F525D5B454D57333038305D416C692078
:1008E0004D515454205265636F6E6E65637420439E
:1008F000616E6E6F74205475726E204F6E0D0A001B
:100900005B494E464F5D5B454D57333038305D4156
:100910006C69204D515454205265636F6E6E65634F
:1009200074204F6E0D0A00006C0000205B4552528F
:100930004F525D5B454D57333038305D416C692017
:100940004D515454204175746F7374617274204317
:10095000616E6E6F74205475726E204F46460D0A9C
:10096000000000005B494E464F5D5B454D573330FC
:1009700038305D416C69204D515454204175746F7D
:100980007374617274205475726E204F46460D0A5E
:1009900000000000700000205B4552524F525D5B2A
:1009A000454D57333038305D416C69204D515454BA
:1009B000204B65657020416C6976652054696D65D2
:1009C00020536574204661696C0D0A005B494E46F0
:1009D0004F5D5B454D57333038305D416C69204D7C
:1009E000515454204B65657020416C6976652054E4
:1009F000696D65203530205365636F6E640D0A00A4
:100A000078000020740000205B4552524F525D5B1D
:100A1000454D57333038305D416C69204D51545449
:100A2000205374617274204661696C0D0A000000E5
:100A30005B494E464F5D5B454D57333038305D4125
:100A40006C69204D51545420537461727420537555
:100A500063636573730D0A007C0000204EA005F0EF
:100A600055F9002041E554A005F050F9002403E0B9
:100A700000205A490855641CB4F5C87FF8DBAFF272
:100A8000E830AFF2F833009055484FF4C87102686F
:100A9000524805F04BF91422524801684F4805F0BE
:100AA000EBFB054625B950A005F030F900201CE508
:100AB00058A005F02BF9002403E000204749085511
:100AC000641CB4F5C87FF8DBAFF23440AFF24443A6
:100AD00000905B484FF4C8710268404805F026F961
:100AE0001422404801683D4805F0C6FB054625B97B
:100AF00054A005F00BF90020F7E45DA005F006F91D
:100B0000002403E0002035490855641CB4F5C87F73
:100B1000F8DBAFF27C40AFF28C4300905F484FF4BB
:100B2000C87102682D4805F001F914222D480168AA
:100B30002A4805F0A1FB054625B959A005F0E6F8BD
:100B40000020D2E460A005F0E1F8002403E00020DA
:100B500022490855641CB4F5C87FF8DBAFF2C840E1
:100B6000AFF2D843009063484FF4C87102681B4845
:100B700005F0DCF814221B480168184805F07CFBDE
:100B8000054625B95CA005F0C1F80020ADE465A0DC
:100B900005F0BCF80120A8E45B4552524F525D5B62
:100BA000454D57333038305D5075622053657420A1
:100BB0004661696C0D0A00005B494E464F5D5B451E
:100BC0004D57333038305D50756220536574205373
:100BD0007563636573730D0A0000000078040020DC
:100BE0008C0000209C0000205B4552524F525D5B00
:100BF000454D57333038305D537562205374617200
:100C0000742053657276696365204661696C0D0ACC
:100C1000000000005B494E464F5D5B454D57333049
:100C200038305D537562205374617274205365725D
:100C30007669636520537563636573730D0A0000FD
:100C4000900000205B4552524F525D5B454D57333B
:100C50003038305D5375622050617573652053657F
:100C60007276696365204661696C0D0A00000000B8
:100C70005B494E464F5D5B454D57333038305D53D1
:100C8000756220506175736520536572766963657E
:100C900020537563636573730D0A00009400002090
:100CA0005B4552524F525D5B454D57333038305D96
:100CB00053756220456E64205365727669636520C2
:100CC0004661696C0D0A00005B494E464F5D5B450D
:100CD0004D57333038305D53756220456E64205374
:100CE00065727669636520537563636573730D0A76
:100CF00000000000980000205B4552524F525D5B9F
:100D0000454D57333038305D5375622052656672F9
:100D10006573682053657276696365204661696C06
:100D20000D0A00005B494E464F5D5B454D57333021
:100D300038305D5375622052656672657368205362
:100D400065727669636520537563636573730D0A15
:100D50000000000000BFFEE7704710B5012000F062
:100D60004DF810BD704770B50446002594F8250075
:100D7000022803D00420E063012520E020680068F9
:100D800020F00E00216808602068006820F0010053
:100D90002168086094F8440000F01C01012088409C
:100DA000216C4860012084F8250000BF002084F8F1
:100DB000240000BFA06B10B12046A16B88472846D5
:100DC00070BD000070B5044600F02EF906462546B9
:100DD000681C10B104480068054400BF00F024F905
:100DE000801BA842FAD370BDE0000020012802D188
:100DF0006421014A116070472400002010B50446A8
:100E000004480068204020B1024804602046FFF7F3
:100E1000EDFF10BD1404014078B503460022E5E063
:100E2000012696400D6805EA0604002C7DD04D6829
:100E3000022D02D04D68122D13D1D60803F12005E2
:100E400055F826005507EE0E0F25B540A843560766
:100E5000F60E0D69B5402843D60803F1200545F884
:100E60002600186856000325B540A8430D7905F003
:100E700003055600B540284318604D68012D08D081
:100E80004D68022D05D04D68112D02D04D68122DF0
:100E900013D1986856000325B540A8435600CD6885
:100EA000B54028439860586801259540A8430D79BE
:100EB000C5F300159540284358600D7905F00305EA
:100EC000032D09D1D86A01259540A8430D79C5F3B2
:100ED000C00595402843D862D86856000325B54020
:100EE000A84356008D68B5402843D8604D6805F08A
:100EF0008055B5F1805F78D100BF3F4D2D6E45F034
:100F000001053D4E356635462D6E05F0010500950F
:100F100000BF00BF4FEAB635960855F82600950782
:100F20002E0F0F25B540A84300E05EE0B3F1904FCF
:100F300001D100251EE0314DAB4201D1012519E060
:100F40002F4DAB4201D1022514E02E4DAB4201D111
:100F500003250FE02C4DAB4201D104250AE02B4DB7
:100F6000AB4201D1052505E0294DAB4201D1062553
:100F700000E007259607360FB5402843254D960813
:100F800045F82600244D2868A0434D6805F48035B7
:100F9000B5F5803F00D120431F4D28602D1D2868E6
:100FA000A0434D6805F40035B5F5003F00D120435E
:100FB000194D2D1D28602D1D2868A0434D6805F48E
:100FC0008015B5F5801F00D12043134D08352860EA
:100FD0002D1D2868A0434D6805F40015B5F5001FC8
:100FE00000D120430C4D0C352860521C0D68D540B3
:100FF000002D7FF415AF78BD0010024000040048BA
:1010000000080048000C0048001000480014004888
:101010000018004808000140000401400AB1816145
:1010200000E08162704700000148006870470000DE
:10103000D8000020034800680349096808440149B2
:1010400008607047D8000020E000002010B50024A0
:10105000032000F0A9F8002000F008F808B10124EE
:1010600001E000F02FF8204610BD000070B50446E6
:10107000002511480068D8B10F4800684FF47A7114
:10108000B1FBF0F00D490968B1FBF0F6304600F015
:10109000FBFF58B9102C07D200222146501E00F049
:1010A00041F80748046004E0012502E0012500E062
:1010B0000125284670BD0000E0000020E40000206B
:1010C000DC00002008B500BF0D48006E40F00100B4
:1010D0000B4908660846006E00F00100009000BF52
:1010E00000BF00BF0846806D40F08050886508460C
:1010F000806D00F08050009000BF00BF08BD000070
:101100000010024001460846002809DB00F01F03DA
:1011100001229A4043099B0003F1E023C3F8002118
:1011200000BF70472DE9F05F80460D461646002748
:1011300004F028FE074639462A46334601F00700E8
:10114000C0F1070ABAF1040F02D94FF0040A01E016
:10115000C0F1070AD14600F1040ABAF1070F02D222
:101160004FF0000A01E0A0F1030AD4464FF0010A53
:101170000AFA09FAAAF1010A0AEA020A0AFA0CFAB8
:101180004FF0010B0BFA0CFBABF1010B0BEA030B5D
:101190004AEA0B042146404604F0FCFD00F000B88A
:1011A00030BCBDE8C09F000000BF00F00702064B46
:1011B00019684FF6FF031940044B0B4343EA022121
:1011C000014B196000BF70470CED00E00000FA050C
:1011D0000246B2F5007F2AD11D48006800F4C060C5
:1011E000B0F5007F32D01A48006820F4C06040F4A7
:1011F0000070174B18601748006832235843164B8D
:10120000B0FBF3F0411C00E0491E1148406900F4B6
:101210008060B0F5806F01D10029F5D10C4840699C
:1012200000F48060B0F5806F10D10320704708484B
:10123000006800F4C060B0F5806F07D00448006813
:1012400020F4C06040F48060014B18600020EDE79E
:1012500000700040E400002040420F000248006897
:1012600000F4C06070470000007000402DE9F843B2
:1012700004460025A846208800F40060B0F5006F01
:1012800030D1606E80B1B0F5800F13D0B0F5000F93
:1012900003D0B0F5400F15D113E0FB48C06840F40F
:1012A0008030F949C8600FE00021201D02F074FA77
:1012B000054609E0002104F1200002F033FB054659
:1012C00002E001E0012500BF00BF55B9EE488830BB
:1012D000006820F44000616E0843EB49C1F88800C3
:1012E00000E0A846208800F48050B0F5805F30D13F
:1012F000A06E80B1B0F1807F13D0B0F1007F03D039
:10130000B0F1407F15D113E0DF48C06840F4803071
:10131000DD49C8600FE00021201D02F03DFA0546BE
:1013200009E0002104F1200002F0FCFA054602E089
:1013300001E0012500BF00BF55B9D34888300068DF
:1013400020F04070A16E0843CF49C1F8880000E04A
:10135000A846206800F40030B0F5003F77D14FF088
:101360000009C948806D012121EA107078B100BFE1
:10137000C548806D40F08050C34988650846806D3F
:1013800000F08050009000BF00BF4FF00109BF483F
:10139000006840F48070BD490860FFF745FE0746CD
:1013A00006E0FFF741FEC01B022801D9032505E036
:1013B000B648006800F480700028F2D000BF85BBFA
:1013C000B1489030006800F44076D6B1D4F884007B
:1013D000B04216D0AC489030006820F44076AA485D
:1013E000D0F8900040F48030A749C1F8900008463A
:1013F000D0F8900020F48030C1F890000846C0F882
:10140000906006F00100A8B1FFF70EFE074609E064
:10141000FFF70AFEC01B41F28831884202D903253A
:1014200007E017E098489030006800F002000028BC
:10143000EED000BF65B994489030006820F4407049
:10144000D4F8841008439049C1F8900003E00CE000
:10145000A84600E0A846B9F1010F05D18A48806D81
:1014600020F080508849886500BF207800F0010096
:1014700048B185488830006820F00300A16B08431C
:101480008149C1F88800207800F00200022809D1C3
:101490007D488830006820F00C00E16B08437A49F1
:1014A000C1F88800207800F00400042809D17648AB
:1014B0008830006820F03000216C08437249C1F880
:1014C0008800207800F00800082809D16E4888308C
:1014D000006820F0C000616C08436B49C1F88800C7
:1014E000207800F01000102809D167488830006883
:1014F00020F44070A16C08436349C1F8880020784B
:1015000000F02000202809D15F488830006820F4CE
:101510004060E16C08435C49C1F88800208800F411
:101520000070B0F5007F09D157488830006820F47A
:101530004020E16D08435449C1F88800208800F438
:101540008060B0F5806F09D14F488830006820F482
:101550004010216E08434C49C1F88800207800F003
:101560004000402809D148488830006820F44050A5
:10157000216D08434449C1F88800207800F08000BC
:10158000802809D140488830006820F44040616DCF
:1015900008433D49C1F88800208800F48070B0F508
:1015A000807F09D138488830006820F44030A16D30
:1015B00008433549C1F88800208800F40050B0F590
:1015C000005F1FD130488830006820F04060E16E35
:1015D00008432D4988310860E06EB0F1006F06D1F4
:1015E0002948C06840F480102749C8600AE0E06ECE
:1015F000B0F1806F06D10121201D02F0CDF8054623
:1016000005B1A846206800F40020B0F5002F1FD1D6
:101610001D488830006820F04060216F08431A4957
:1016200088310860206FB0F1006F06D11648C0689D
:1016300040F480101449C8600AE0206FB0F1806F58
:1016400006D10121201D02F0A7F8054605B1A846E4
:10165000206800F48020B0F5802F24D10A4888301B
:10166000006820F04060616F0843074988310860D6
:10167000606FB0F1006F0BD10348C06840F4801078
:101680000149C8600FE000000010024000700040F7
:10169000606FB0F1806F06D10121201D02F07CF84F
:1016A000054605B1A846208800F48040B0F5804F7B
:1016B0001FD12248006820F04050A16F08431F4905
:1016C0000860A06FB0F1805F07D10221201D02F0F9
:1016D00063F805466DB1A8460BE0A06FB0F1005F5E
:1016E00007D1022104F1200002F01CF9054605B1E2
:1016F000A846208800F40040B0F5004F09D10F48FB
:10170000006820F08040E16F08430C498839C1F837
:101710008800206800F48030B0F5803F0AD1074887
:10172000006820F00040D4F880100843034988394D
:10173000C1F888004046BDE8F883000088100240E8
:101740002DE9F04104460D4614B90120BDE8F081B1
:101750005548006800F00700A8420ED252480068C1
:1017600020F007002843504908600846006800F050
:101770000700A84201D00120E8E7207800F001002E
:10178000002840D06068032806D14848006800F06F
:101790000070D8B90120D9E76068022806D1434813
:1017A000006800F4003088B90120CFE7606830B9E4
:1017B0003E48006800F0020040B90120C6E73B48FF
:1017C000006800F4806008B90120BFE737488068EE
:1017D00020F003006168084334498860FFF724FC67
:1017E000064608E0FFF720FC801B41F28831884262
:1017F00001D90320AAE72D48806800F00C00616839
:10180000B0EB810FEED1207800F00200022807D162
:101810002648806820F0F000A168084323498860CA
:101820002148006800F00700A8420ED91E48006851
:1018300020F0070028431C4908600846006800F0B3
:101840000700A84201D0012080E7207800F00400C2
:10185000042807D11548806820F4E060E168084357
:1018600012498860207800F00800082808D10F4845
:10187000806820F46050216940EAC1000B4988600B
:1018800000F046F809498968C1F30311084A515C20
:1018900001F01F01C8400749086007480068FFF7CA
:1018A000E5FB0746384651E70020024000100240A1
:1018B000DC9B0008E4000020DC00002001480068F8
:1018C00070470000E400002000B5FFF7F7FF05496E
:1018D0008968C1F30221044A515C01F01F01C8402C
:1018E00000BD000000100240EC9B000800B5FFF7AF
:1018F000E5FF05498968C1F3C221044A515C01F042
:101900001F01C84000BD000000100240EC9B000811
:10191000F0B500230020DFF8D4C0DCF808C00CF0DC
:101920000C01DFF8C8C0DCF80CC00CF0030719B1DB
:101930000C291ED1012F1CD1DFF8B0C0DCF800C08B
:101940000CF0080CBCF1000F06D1DFF8A0C0DCF8E9
:1019500094C0CCF3032305E0DFF890C0DCF800C0AE
:10196000CCF30313DFF888C05CF8233041B9184684
:1019700006E0042901D11F4802E0082900D11E48D1
:101980000C2932D1DFF864C0DCF80CC00CF0030481
:10199000012C09D0022C02D0032C04D101E0154AFD
:1019A00004E0154A02E000BF1A4600BF00BFDFF89E
:1019B0003CC0DCF80CC0CCF3021C0CF10106DFF8D3
:1019C0002CC0DCF80CC0CCF3062C0CFB02FCBCFBDE
:1019D000F6F2DFF818C0DCF80CC0CCF3416C0CF167
:1019E000010C4FEA4C05B2FBF5F0F0BD00100240CF
:1019F000F49B00080024F40000127A002DE9F8435B
:101A0000044614B90120BDE8F883F948806800F065
:101A10000C07F748C06800F00306207800F01000BB
:101A2000102876D11FB10C2F75D1012E73D1F0483B
:101A3000006800F0020018B1A06908B90120E2E7CF
:101A4000EB48216A006800F0080020B1E84800680F
:101A500000F0F00005E0E6489430006800F47060A3
:101A6000000981421FD9206A02F00EF808B1012056
:101A7000C9E700BFDE48006840F00800DC490860A4
:101A80000846006820F0F000216A0843D849086041
:101A900000BF0846406820F47F40E16940EA012029
:101AA000D34948601EE000BFD148006840F00800FC
:101AB000CF4908600846006820F0F000216A08431A
:101AC000CB49086000BF0846406820F47F40E169C8
:101AD00040EA0120C6494860206A01F0D5FF08B1FC
:101AE000012090E7FFF714FFC1498968C1F3031192
:101AF000C04A515C01F01F01C840BF490860BF489F
:101B00000068FFF7B3FA8046B8F1000F4ED04046A8
:101B100079E74BE0FFE7A06980B3B548006840F083
:101B20000100B3490860FFF77FFA054606E0FFF7BA
:101B30007BFA401B022801D9032064E7AC48006807
:101B400000F002000028F2D000BFA948006840F071
:101B50000800A74908600846006820F0F000216AE4
:101B60000843A349086000BF0846406820F47F404E
:101B7000E16940EA01209E49486017E0FFE79C4880
:101B8000006820F001009A490860FFF74DFA054609
:101B900006E0FFF749FA401B022801D9032032E78B
:101BA0009348006800F002000028F2D1207800F08D
:101BB000010000285CD0082F03D00C2F0AD1032E7F
:101BC00008D18B48006800F4003088B3606878BBA7
:101BD000012018E700BF6068B0F5803F06D1844857
:101BE000006840F48030824908601AE06068B0F50F
:101BF000A02F0BD17E48006840F480207C4908600B
:101C00000846006840F4803008600AE078480068C0
:101C100020F48030764908600846006820F480206F
:101C2000086000BF606890B1FFF7FEF9054607E065
:101C30001EE0FFF7F9F9401B642801D90320E2E612
:101C40006B48006800F400300028F2D010E0FFF785
:101C5000EBF9054606E0FFF7E7F9401B642801D9D8
:101C60000320D0E66248006800F400300028F2D17A
:101C7000207800F00200022852D1042F03D00C2F4C
:101C800014D1022E12D15A48006800F4806018B1B5
:101C9000E06808B90120B6E65548406820F0F850E1
:101CA000217C40EA01605249486039E0E06800B3B5
:101CB0004F48006840F480704D490860FFF7B4F960
:101CC000054606E0FFF7B0F9401B022801D90320C2
:101CD00099E64748006800F480600028F2D0444844
:101CE000406820F0F850217C40EA0160404948609B
:101CF00016E03F48006820F480703D490860FFF717
:101D000093F9054606E0FFF78FF9401B022801D939
:101D1000032078E63648006800F480600028F2D19D
:101D2000207800F00800082836D16069D0B130482A
:101D30009430006840F001002D49C1F89400FFF78D
:101D400073F9054606E0FFF76FF9401B022801D939
:101D5000032058E626489430006800F0020000286E
:101D6000F1D019E022489430006820F001002049A9
:101D7000C1F89400FFF758F9054606E0FFF754F95B
:101D8000401B022801D903203DE619489430006821
:101D900000F002000028F1D1207800F004000428AF
:101DA00073D14FF000091248806D00F0805078B96F
:101DB00000BF0F48806D40F080500D49886508468F
:101DC000806D00F08050009000BF00BF4FF001090F
:101DD0000B48006800F4807008BB0948006840F4B4
:101DE000807007490860FFF71FF9054611E0000001
:101DF00000100240DC9B0008E4000020DC00002012
:101E000000700040FFF710F9401B022801D90320A1
:101E1000F9E59948006800F480700028F2D000BF0E
:101E2000A068012808D19548006840F00100934956
:101E30009039C1F8900021E0A06805280FD18F48A3
:101E4000006840F004008D499039C1F890000846C0
:101E5000D0F8900040F00100C1F890000EE08748F3
:101E6000006820F0010085499039C1F890000846CB
:101E7000D0F8900020F00400C1F8900000BFA068E6
:101E8000A0B1FFF7D1F8054609E02EE0FFF7CCF846
:101E9000401B41F28831884201D90320B3E57748DD
:101EA000006800F002000028F0D012E0FFF7BCF854
:101EB000054608E0FFF7B8F8401B41F28831884238
:101EC00001D903209FE56D48006800F0020000285A
:101ED000F0D1B9F1010F07D168489038806D20F03A
:101EE000805066499039886500BFA06A00285BD0A1
:101EF0000C2F78D0A06A022857D16048903800682B
:101F000020F080705D4990390860FFF78DF8054634
:101F100006E0FFF789F8401B022801D9032072E58B
:101F200056489038006800F000700028F1D1D4E9DC
:101F30000B10401E41EA0011606B41EA0021A08FA6
:101F40000122C2EB500041EA40514020005DC2EB4B
:101F5000500041EA4061A06B000941EA4040474916
:101F60009039C968464A1140084344499039C860CD
:101F70000846006840F0807008600846C06840F07D
:101F80008070C860FFF750F8054606E0FFF74CF890
:101F9000401B022801D9032035E5384890380068F5
:101FA00000F000700028F1D064E0344890380068F8
:101FB00020F080703149903908600846006800F0D0
:101FC000205020B90846C06820F00300C8602B48A4
:101FD0009038C0682B49084028499039C860FFF7FD
:101FE00023F8054607E00EE0FFF71EF8401B022825
:101FF00001D9032007E521489038006800F00070FF
:102000000028F1D136E0A06A012800D1FBE41B488A
:102010009038C66806F00301E06A814228D106F0D4
:102020007001206B401EB1EB001F21D106F4FE4170
:10203000606BB1EB002F1BD106F40031A06B0728B9
:1020400001D0012000E00020814211D106F4C0013E
:10205000A08F0122C2EB5000B1EB405F08D106F027
:10206000C0614020005DC2EB5000B1EB406F01D079
:102070000120C8E40020C6E4007000409010024037
:102080008C809DF9FFFFEEFE70B504462546681E64
:10209000B0F1807F01D301200FE0681E4FF0E021F6
:1020A00048610F214FF0FF3003F074FE00204FF025
:1020B000E021886107200861002070BD70477047EB
:1020C0007047000030B502460B4600BF92F83C0056
:1020D000012801D1022030BD012082F83C0000BF60
:1020E000022082F83D001068416810688468114D34
:1020F0001068A84203D0104D1068A84203D121F403
:1021000070015868014321F070011868014324F000
:10211000800498680443106841601068846001205E
:1021200082F83D0000BF002082F83C0000BF00BFE5
:10213000D1E70000002C01400034014010B50446F6
:102140000CB9012010BD94F83D0028B9002084F896
:102150003C00204600F00CF8022084F83D00211DD0
:10216000206801F09DFD012084F83D000020E9E792
:1021700038B504462068B0F1804F16D100BF18482A
:10218000806D40F00100164988650846806D00F0BA
:102190000100009000BF00BF002201211C20FEF7BB
:1021A000C1FF1C20FEF7AEFF19E00E4920688842EF
:1021B00015D100BF0A48806D40F0040008498865C9
:1021C0000846806D00F00400009000BF00BF0022B0
:1021D00011461E20FEF7A6FF1E20FEF793FF38BD16
:1021E000001002400008004001460868C06840F046
:1021F00001000B68D86008688068084B00EA030299
:10220000062A08D0B2F5803F05D00868006840F083
:1022100001000B68186000207047000007000100F3
:102220002DE9F04104460D4600BF94F83C0001281A
:1022300002D10220BDE8F081012084F83C0000BFFB
:10224000022084F83D00206886683748064026F45E
:102250007F46206886602868502833D00CDC202810
:1022600050D004DC00284BD0102851D149E0302850
:1022700049D040284CD139E060282DD0702807D0B3
:10228000B0F5805F03D0B0F5005F41D10DE040E0D4
:10229000D5E902136A68206801F079FD2068866834
:1022A00046F077062068866033E0D5E902136A6855
:1022B000206801F06CFD2068806840F4804021684F
:1022C000886026E0EA686968206801F029FF5021EB
:1022D000206801F067FD1CE0EA686968206801F089
:1022E00032FF6021206801F05DFD12E0EA68696854
:1022F000206801F015FF4021206801F053FD08E03F
:1023000000BF00BF00BF2968206801F04BFD00E05E
:1023100000BF00BF012084F83D0000BF002084F80A
:102320003C0000BF00BF85E788FFFEFF704710B587
:10233000044620680069C0F34000D8B12068C06836
:10234000C0F34000B0B16FF00200216808610120C5
:1023500020772068806900F0030018B12046FFF75D
:10236000E5FF05E0204600F0EDF8204600F0D8F942
:102370000020207720680069C0F38000D8B1206871
:10238000C068C0F38000B0B16FF00400216808613C
:10239000022020772068806900F4407018B1204640
:1023A000FFF7C4FF05E0204600F0CCF8204600F01F
:1023B000B7F90020207720680069C0F3C000D8B1C9
:1023C0002068C068C0F3C000B0B16FF00800216899
:1023D0000861042020772068C06900F0030018B16C
:1023E0002046FFF7A3FF05E0204600F0ABF82046AB
:1023F00000F096F90020207720680069C0F30010F3
:10240000D8B12068C068C0F30010B0B16FF0100000
:1024100021680861082020772068C06900F44070B6
:1024200018B12046FFF782FF05E0204600F08AF849
:10243000204600F075F9002020772068006900F040
:10244000010058B12068C06800F0010030B16FF0A1
:10245000010021680861204600F0A8F920680069A1
:10246000C0F3C01058B12068C068C0F3C01030B1CC
:102470006FF08000216808612046FFF720FE206889
:102480000069C0F3002058B12068C068C0F3C010D4
:1024900030B16FF48070216808612046FFF70EFEAE
:1024A00020680069C0F3801058B12068C068C0F38C
:1024B000801030B16FF0400021680861204600F0C4
:1024C000F7FA20680069C0F3401058B12068C0686E
:1024D000C0F3401030B16FF0200021680861204641
:1024E000FFF7EEFD10BD000010B586B004461421C4
:1024F00001A8FDF7B2FE1149206888421BD100BF38
:102500000F48C06C40F001000D49C8640846C06C1B
:1025100000F00100009000BF00BF402001900220A9
:1025200002900020039004900220059001A94FF032
:102530009040FEF771FC06B010BD000000040040A2
:1025400000100240704770B504460D46164600BFA5
:1025500094F83C00012801D1022070BD012084F8CC
:102560003C0000BF022084F83D000C2E51D005DC59
:102570004EB1042E1ED0082E7AD133E0102E60D03A
:10258000142EF9D175E02946206801F015FC206869
:10259000806940F00800216888612068806920F027
:1025A00004002168886120688069296908432168DE
:1025B000886177E02946206801F054FC2068806932
:1025C00040F40060216888612068806920F48060A0
:1025D0002168886120688069296940EA01202168B2
:1025E00088615FE02946206801F096FC2068C06998
:1025F00040F008002168C8612068C06920F004002C
:102600002168C8612068C069296908432168C861D8
:1026100048E02946206801F0D9FC2068C06940F4F0
:1026200000602168C8612068C06920F4806021686A
:10263000C8612068C069296940EA01202168C86131
:1026400030E02946206801F0FBFC2068406D40F036
:102650000800216848652068406D20F0040021686A
:1026600048652068406D296908432168486519E07C
:1026700017E02946206801F01BFD2068406D40F4FA
:102680000060216848652068406D20F48060216802
:1026900048652068406D296940EA01202168486545
:1026A00000E000BF00BF012084F83D0000BF002013
:1026B00084F83C0000BF00BF4FE710B504460CB9DA
:1026C000012010BD94F83D0028B9002084F83C009A
:1026D000204600F00DF8022084F83D00211D2068FE
:1026E00001F0DEFA012084F83D000020E9E7000057
:1026F00008B5094A016891420DD100BF0749896DAB
:1027000041F00201054A91651146896D01F002010F
:10271000009100BF00BF08BD00040040001002404F
:102720007047000070B504460E460122314620680D
:1027300001F01CFB1749206888420FD01649206819
:1027400088420BD015492068884207D01449206878
:10275000884203D013492068884201D1012000E05B
:10276000002028B12068406C40F400402168486493
:10277000206880680C4900EA0105062D08D0B5F5EF
:10278000803F05D02068006840F0010021680860A3
:10279000002070BD002C0140003401400040014089
:1027A0000044014000480140070001002DE9F041CC
:1027B000C6B006468B48864279D18B48006828B956
:1027C000012220214FF09040FEF728FC8648006847
:1027D000002804DD84480068401E8349086083485F
:1027E0000068B0F5967F08DA80480068002805DDAB
:1027F0007E480068401E7D490860BAE04FF4C8700A
:102800007A4908607A497BA003F080FA82A178486F
:1028100003F074FA00287DD00EA806F0C1F90A2250
:1028200073490EA806F07DFE05462F460FF2E81804
:10283000384607F0C4F941460A90384607F0C8F810
:102840000AA90B900BA807F099F900287AD072A278
:1028500029460CA806F09BF9DDE90C01459144904E
:102860006E48016844A807F0A2F8002876D06CA250
:1028700029460AA806F08BF9DDE90A01CDE90C0129
:1028800000210CA807F093F8002863D064A2294621
:1028900001A806F07CF9DDE90101CDE90A0101207A
:1028A00009A909900AA806F0A2FF002404E06EE03E
:1028B00000205C490855641CB4F5C87FF8DB4FF470
:1028C000C8725849284607F02CF95648FDF7F8FC1D
:1028D00087B20A233A465349534800F0FBFB53A200
:1028E000294601A806F053F9DDE90101CDE9070108
:1028F00007A807F036F94E4908604EA2294601A8FC
:1029000006F045F9DDE90101CDE9050105A807F06B
:1029100028F900E029E04949086049A2294601A8B0
:1029200006F035F9DDE90101CDE9030103A807F05F
:1029300018F94549086008460368404802683C4861
:10294000016800E00AE041A003F0E0F901204949F4
:10295000087002E001204849087000BF0EA803F08B
:1029600084F90EA803F04EF900BF4FF496701F498A
:10297000086042480068B0F5967F2FDA3F4800684B
:10298000002805DD3D480068401E3C49086025E000
:102990004FF4C8703949086039493AA003F0B6F9D4
:1029A0000025374F4FF07B0841463846FDF77EFC47
:1029B000054695B13C48007878B9012403E0002031
:1029C0003A490855641CB4F5C87FF8DB29463748F6
:1029D000FDF78BFC01203449087000BF46B0BDE80C
:1029E000F0810000340600202400002000000020B8
:1029F000140A00205B494E464F5D72656365697637
:102A000065206D73672066726F6D2063616D3A0D8E
:102A10000A25730D0A0000006964000014000020FC
:102A200061636B00A40B0020340D0020726564000C
:102A300008000020677265656E0000000C00002031
:102A400063686F7073000000100000205B494E4601
:102A50004F5D5B43414D5D5265643A25642047728A
:102A600065656E3A25642043686F70733A25640D7E
:102A70000A00000029000020280000200400002097
:102A8000840800205B494E464F5D72656365697638
:102A900065206D73672066726F6D20776966693A8D
:102AA0000D0A25730D0A0000300000205801002097
:102AB00070477047704700002DE9F04704462068D2
:102AC000C569206806682068876805F00F08B8F1B6
:102AD000000F0CD105F0200048B106F0200030B105
:102AE000206E10B12046216E8847BDE8F087B8F10E
:102AF000000F71D007F0010018B906F4907000289B
:102B000079D005F0010048B106F4807030B10120A1
:102B100021680862E06F40F00100E06705F0020004
:102B200048B107F0010030B1022021680862E06F6F
:102B300040F00400E06705F0040048B107F0010030
:102B400030B1042021680862E06F40F00200E067C5
:102B500005F0080060B106F0200010B907F0010090
:102B600030B1082021680862E06F40F00800E0679B
:102B7000E06F80B305F0200038B106F0200020B1EE
:102B8000206E10B12046216E8847D4F87C902068D2
:102B9000806800F04000402802D009F0080020B30F
:102BA000204601F0ACFB2068806800F0400040281F
:102BB00017D12068806820F0400021688860E06EAE
:102BC00058B12048E16E8863E06EFEF7CCF810B192
:102BD000E06E816B88470DE00DE02046FFF76AFF4D
:102BE00008E02046FFF766FF04E02046FFF762FF9B
:102BF0000020E06779E705F4801050B107F4800009
:102C000038B14FF48010216808622046FFF751FF69
:102C10006BE705F0800040B106F0800028B1606EDF
:102C200010B12046616E88475FE705F0400030B183
:102C300006F0400018B1204601F072FB55E700BFD6
:102C400053E70000E742000810B504460CB9012024
:102C500010BDA06900B100E000BF606F28B900207E
:102C600084F87000204600F029F82420606720686E
:102C7000006820F0010021680860204601F0C8FBD0
:102C8000012800D1E4E7606A10B1204601F078FA2B
:102C90002068406820F4904021684860206880687F
:102CA00020F02A00216888602068006840F0010058
:102CB00021680860204601F0DFFAC9E710B586B048
:102CC0000446142101A8FDF7C8FA6E49206888421D
:102CD00032D100BF6C48806D40F400206A4988659D
:102CE0000846806D00F40020009000BF00BF00BFC8
:102CF0000846C06C40F00100C8640846C06C00F093
:102D00000100009000BF00BF03200190022002904C
:102D100000200390032004900820059001A94FF0A3
:102D20009040FEF779F8002211463420FEF7FAF9B8
:102D30003420FEF7E7F9A3E054492068884233D1F4
:102D400000BF5148006E40F480404F490866084675
:102D5000006E00F48040009000BF00BF00BF084636
:102D6000C06C40F00100C8640846C06C00F001006F
:102D7000009000BF00BF4FF4C0600190022002909D
:102D800000200390032004900720059001A94FF034
:102D90009040FEF741F8002211462520FEF7C2F9C7
:102DA0002520FEF7AFF96BE039492068884232D11F
:102DB00000BF3548806D40F40030334988650846CF
:102DC000806D00F40030009000BF00BF00BF0846D7
:102DD000C06C40F00100C8640846C06C00F00100FF
:102DE000009000BF00BF0C20019002200290002044
:102DF0000390032004900720059001A94FF0904014
:102E0000FEF70AF8002211462620FEF78BF926204D
:102E1000FEF778F934E01F492068884230D100BFBE
:102E20001948806D40F48020174988650846806DF8
:102E300000F48020009000BF00BF00BF0846C06CB7
:102E400040F00400C8640846C06C00F00400009024
:102E500000BF00BF302001900220029000200390AC
:102E6000032004900720059001A90B48FDF7D4FF2B
:102E7000002211462720FEF755F92720FEF742F9D8
:102E800006B010BD004C0040001002400038014068
:102E900000440040004800400008004810B50346C8
:102EA000986F202865D101B10AB9012010BD00BF7B
:102EB00093F87000012801D10220F7E7012083F880
:102EC000700000BF5965A3F85820A3F85A200020CD
:102ED000186600BF9868B0F5805F0AD1186920B9FC
:102EE00040F2FF10A3F85C0020E0FF20A3F85C0094
:102EF0001CE0986848B9186918B9FF20A3F85C006D
:102F000014E07F20A3F85C0010E09868B0F1805FC7
:102F100009D1186918B97F20A3F85C0006E03F20AA
:102F2000A3F85C0002E00020A3F85C0000BF0020D2
:102F3000D867222098671868806840F001001C68F4
:102F4000A0609868B0F5805F04D1186910B90A488C
:102F5000186601E00948186600BF002083F8700079
:102F600000BF1868006840F490701C682060002062
:102F70009CE702209AE7000041430008AB430008A9
:102F800070B50546464885422FD146480068B0F5E1
:102F9000967F00DD70BD43480068C8280BDD002423
:102FA00003E0002040490855641CB4F5C87FF8DBF5
:102FB00000203E4908603E4800783B493B4A126881
:102FC00088543A480068401C384908600846006840
:102FD000B0F5C87F01DB00200860C82031490860D7
:102FE000012233492E48FFF759FF324885420AD162
:102FF0003148417B11B9314900F0CFFD01222F4901
:103000002C48FFF74BFF2E48854246D12D480068DB
:10301000B0F5967F17DD2C4800782C492C4A1268B1
:1030200088542B480068401C2949086008460068FD
:10303000B0F5C87F01DB002008600122224920484A
:10304000FFF72CFFA6E71F480068C8280BDD002407
:1030500003E000201D490855641CB4F5C87FF8DB67
:1030600000201B490860184800781849184A12685F
:10307000885417480068401C1549086008460068D5
:10308000B0F5C87F01DB00200860C8200D4908604A
:1030900001220D490A48FFF701FF00BF7AE700004F
:1030A000340D002000000020140A0020A40000209D
:1030B000A3000020B40D00206F3A0020A1000020E2
:1030C000B40E002004000020A2000020840800208C
:1030D000AC0000202DE9F84F04460E4617469946ED
:1030E000606F20285CD106B117B9012000F05AB8F2
:1030F00000BF94F87000012801D10220F6E70120FA
:1031000084F8700000BF0020E06721206067FDF7B1
:103110008BFF8246A4F85070A4F85270A068B0F5F6
:10312000805F04D1206910B90025B04602E0354621
:103130004FF000081DE05346002280212046CDF8C4
:10314000009001F0ECFB08B10320CFE745B9B8F8D7
:103150000000C0F308002168088508F1020803E0B8
:103160002878216808856D1CB4F85200401EA4F828
:103170005200B4F852000028DDD15346002240210D
:103180002046CDF8009001F0CAFB08B10320ADE75E
:103190002020606700BF002084F8700000BFA5E712
:1031A0000220A3E718BCBDE8E08F000010B503467D
:1031B000586F202830D101B10AB9012010BD00BFDD
:1031C00093F87000012801D10220F7E7012083F86D
:1031D000700000BFD964A3F85020A3F8522000204B
:1031E0005866D867212058679868B0F5805F04D189
:1031F000186910B90948586601E00948586600BFC7
:10320000002083F8700000BF1868006840F080005C
:103210001C6820600020D1E70220CFE79B4800080F
:10322000DF48000810B50446134884420CD100BFA3
:103230001248007B40B91249104800F082FC01227C
:103240000F490D48FFF7B2FF0E48844212D10E48D5
:1032500000680E49096888420CDA0D480A4A12686B
:10326000811801220748FFF7A1FF07480068401CAA
:103270000549086010BD0000B40D0020453A00204B
:10328000A0000020B40E0020B0000020A800002004
:10329000F406002000BFFEE700B587B0142102A8A5
:1032A000FCF7DBFF00BF4B48C06C40F08000494991
:1032B000C8640846C06C00F08000019000BF00BFE9
:1032C00000BF0846C06C40F00400C8640846C06CEB
:1032D00000F00400019000BF00BF00BF0846C06CB2
:1032E00040F00100C8640846C06C00F00100019085
:1032F00000BF00BF00BF0846C06C40F00200C864B9
:103300000846C06C00F00200019000BF00BF002220
:10331000C9143148FDF782FE012002902F48039026
:103320000020049002A92E48FDF776FD4FF40060BE
:10333000029000200390049002A94FF09040FDF706
:103340006BFD4FF400600290012003900020049078
:103350000220059002A92048FDF75EFD02200290A0
:1033600001200390002004900220059002A91C482F
:10337000FDF752FD002280214FF09040FDF74EFEF8
:10338000002220214FF09040FDF748FE802002905F
:1033900001200390022004900020059002A94FF024
:1033A0009040FDF739FD202002900120039002207B
:1033B00004900020059002A94FF09040FDF72CFDED
:1033C000002211460620FDF7ADFE0620FDF79AFE0D
:1033D00007B000BD0010024000040048000031109A
:1033E0000008004800B587B00020039004900590C5
:1033F00006900090019002904FF0804013490860C1
:1034000040F21F3048600021104881606421C16093
:10341000002101618161FEF791FE08B1FDF7A2FC78
:103420004FF48050039003A90848FEF7F9FE08B155
:10343000FDF798FC00200090029069460348FEF7D3
:1034400041FE08B1FDF78EFC07B000BD3406002038
:1034500000B58BB00020089009900A901C2101A8AB
:10346000FCF7FBFE18481949086027204860002136
:103470001648816040F2E731C1600021016181613D
:10348000FFF71BF908B1FDF76DFC002008900A90CA
:1034900008A90E48FEF716FE08B1FDF763FC602090
:1034A00001904FF4FA7002900020039005900022E2
:1034B00001A90648FFF747F808B1FDF753FC034898
:1034C000FFF712F80BB000BD0004004074060020A6
:1034D00010B50D480D4908604FF4E13048600021F7
:1034E0000A488160C16001610C2141610021816154
:1034F000C16101620020054948620846FFF7A4FB4C
:1035000008B1FDF72FFC10BD004C0040340D002029
:1035100010B50D480D4908604FF4E13048600021B6
:103520000A488160C16001610C2141610021816113
:10353000C16101620020054948620846FFF784FB2B
:1035400008B1FDF70FFC10BD00380140B40D00209C
:1035500010B50D480D4908604FF4E1304860002176
:103560000A488160C16001610C21416100218161D3
:10357000C16101620020054948620846FFF764FB0B
:1035800008B1FDF7EFFB10BD00440040340E0020F1
:1035900010B50D480D4908604FF4E1304860002136
:1035A0000A488160C16001610C2141610021816193
:1035B000C16101620020054948620846FFF744FBEB
:1035C00008B1FDF7CFFB10BD00480040B40E00204D
:1035D0002DE9FE4F04460D4616461F46DDE90C8ACE
:1035E0004FF00009684604F0D7FE042004F0CAFE3C
:1035F000834601225946684604F0D4FE8146B9F15B
:10360000000F1ED13A463146684604F039FEB0F14B
:10361000000900D016E02A462146684604F09EFEC6
:10362000B0F1000900D00DE04146684604F0EAFD23
:10363000B0F1000900D005E04046FCF741FECAF8B1
:10364000000000BF684604F0BFFD484600F000B827
:103650001EBCBDE8E08F00BFFEE710B50446204663
:1036600001F0C8FB10BD2DE9F04106460C4606F2FC
:10367000852706F2011500BF387B10B10120BDE897
:10368000F0812946384600F05CFAE8782070287905
:1036900000F0010060702879C0F34000A070A878A5
:1036A000801EE070E07820B1E278691D201DFCF7F3
:1036B000BBFD0020E3E72DE9F04106460D4606F28A
:1036C0005B2706F1540400BF787B10B10220BDE8EF
:1036D000F081E878801CA0702878E07000212171CA
:1036E0002079697801F00101084320712079A978D7
:1036F000022202EA410108432071E87820B1EA7809
:10370000291D601DFCF790FD2146384600F045FA62
:103710000020DCE77047704710B501231A030C49FD
:103720000C4800F069FA01231A030B4909482A30B2
:1037300000F062FAAD2308220849094800F05CFA5B
:10374000AD230822074906482A3000F055FA10BD7B
:10375000750F0020453A0020751F0020752F0020AE
:10376000A03C0020DD34002000B5ABB00848FFF7D6
:1037700074FF00BF0648D0F80E0010B10548FFF7EF
:1037800051FD69460248FFF76EFF2BB000BD0000F7
:10379000453A0020B40D00202DE9F04104460F46C3
:1037A00000255C48C06800F0030090B15948C0682B
:1037B00000F003002168884209D1206838B15548DB
:1037C000C068C0F30210401C6168884233D00125F4
:1037D00031E02068012804D0022809D003281AD13A
:1037E0000DE04C48006800F0020000B9012514E02B
:1037F0004848006800F4806000B901250DE04548A4
:10380000006800F4003028B94248006800F48020C5
:1038100000B9012501E0012500BF00BF5DB9D4E971
:103820000010401E41EA00103A49C96821F07301B6
:1038300008433849C860002D68D13648006820F038
:10384000806034490860FDF7EFFB064606E0FDF7AF
:10385000EBFB801B022801D9032505E02D480068F9
:1038600000F000600028F2D100BFCDBB6FB9A068A6
:103870000002E168090940EA414026490969264AEF
:10388000114008432349086120E0012F0FD1A068AF
:103890000002218A0122C2EB510140EA41501D4938
:1038A00009691E4A114008431A4908610EE0A068E0
:1038B0000002217D0122C2EB510140EA416015491D
:1038C0000969174A11400843124908611148006804
:1038D00040F080600F490860FDF7A6FB064607E050
:1038E00014E0FDF7A1FB801B022801D9032505E0A8
:1038F0000848006800F000600028F2D000BF2DB931
:1039000004480069A1690843024908612846BDE8E6
:10391000F081000000100240FF80FDFFFF809FFF4C
:10392000FF80FFF92DE9F04104460F46002553487A
:10393000C06800F0030090B15048C06800F0030078
:103940002168884209D1206838B14C48C068C0F36A
:103950000210401C6168884233D0012531E02068A4
:10396000012804D0022809D003281AD10DE04348C9
:10397000006800F0020000B9012514E03F4800682B
:1039800000F4806000B901250DE03C48006800F4B7
:10399000003028B93948006800F4802000B90125BA
:1039A00001E0012500BF00BF5DB9D4E90010401E51
:1039B00041EA00103149C96821F0730108432F49D9
:1039C000C860002D56D12D48006820F080502B494A
:1039D0000860FDF729FB064606E0FDF725FB801B86
:1039E000022801D9032505E02448006800F00050B2
:1039F0000028F2D100BF75BB6FB9A0680002E16872
:103A0000090940EA41401D4949691D4A11400843DE
:103A10001A4948610EE0A0680002217C0122C2EB35
:103A2000510140EA416015494969164A114008436D
:103A3000124948611148006840F080500F49086001
:103A4000FDF7F2FA064607E0FDF7EEFA801B0228C2
:103A500002D9032506E00DE00848006800F0005098
:103A60000028F1D000BF2DB90448406961690843BE
:103A7000024948612846BDE8F0810000001002407C
:103A8000FF80FDFFFF80FFF9F8B5044600262348BC
:103A9000806D00F0805018B1FDF7E0FB054616E0A0
:103AA00000BF1E48806D40F080501C498865084664
:103AB000806D00F08050009000BF00BFFDF7CEFB8E
:103AC00005461648806D20F0805014498865B5F58C
:103AD000007F07D1802C10D9A02C01D902260CE040
:103AE00001260AE0802C01D9032606E0802C01D1B2
:103AF000022602E0702C00D101260948006820F05F
:103B000007003043064908600846006800F00700D7
:103B1000B04201D00120F8BD0020FCE700100240B7
:103B20000020024030B50246D2F812000844546822
:103B3000B0FBF4F504FB15031068946803FB040064
:103B400030BD70B504460D464DB12068D4F8123032
:103B5000A66803FB060132462846FCF765FBA41D58
:103B6000E068401C54F8021CB0FBF1F201FB1200AB
:103B7000E0606269A069521C40F100006261A061CE
:103B800072B6A068401EA060A068A41F08B90120FA
:103B900020730020607362B670BD70B504460D4698
:103BA0004DB12168D4F81630A66803FB06103246E2
:103BB0002946FCF739FBA41D2069401C54F8021C5F
:103BC000B0FBF1F201FB12002061E269206A521C95
:103BD00040F10000E261206272B6A068401CA06063
:103BE0000020A071A06854F8021CA41F884201D1D3
:103BF0000120607362B670BD30B5801C40F8021CB5
:103C0000C0F80220C0F80630012484720024C47277
:103C1000C4600461446101258561C4610562446238
:103C2000801E30BD704710B5FDF704FA10BD0000CE
:103C30001048006840F470000E4908600E480068A3
:103C400040F001000C4908600020886008460068C8
:103C50000A490840084908608814C8600846006896
:103C600020F48020086000208861C8030149803961
:103C70000860704788ED00E000100240FFFFF6EAA0
:103C800010B50248FEF753FB10BD000034060020BB
:103C900010B50248FEF74BFB10BD0000B406002033
:103CA00010B50268294B98420ED0B0F1804F0BD06E
:103CB000274B984208D0274B984205D0264B984274
:103CC00002D0264B984203D122F070024B681A436F
:103CD0001E4B984217D0B0F1804F14D01C4B984225
:103CE00011D01C4B98420ED01B4B98420BD01B4B53
:103CF000984208D01A4B984205D01A4B984202D0ED
:103D0000194B984203D122F44072CB681A4322F037
:103D100080034C6943EA040202608B68C3620B684B
:103D200083620A4B98420BD00C4B984208D00C4B44
:103D3000984205D00B4B984202D00B4B984201D1D0
:103D40000B6903630123436110BD0000002C014097
:103D50000004004000080040000C00400034014016
:103D600000400140004401400048014030B501F0EE
:103D70001F05012404FA05F3046A9C430462046AE3
:103D800001F01F0502FA05F52C43046230BD30B581
:103D90000C46816821F47F4142EA032525432943EB
:103DA000816030BD0A46816821F0700142F007034E
:103DB000194381607047000030B5056A25F00105A0
:103DC0000562026A43688469204D2C4024F0030494
:103DD0000D682C4322F002028D682A431C4DA84234
:103DE00000D10FE01B4DA84200D10BE01A4DA842B4
:103DF00000D107E0194DA84200D103E0184DA842B8
:103E000006D100BF22F00802CD682A4322F0040246
:103E10000F4DA8420BD00F4DA84208D00E4DA8421E
:103E200005D00E4DA84202D00D4DA84207D123F473
:103E3000807323F400734D692B438D692B434360DA
:103E400084614D684563026230BD00008FFFFEFF54
:103E5000002C01400034014000400140004401407A
:103E60000048014030B5056A25F010050562026A78
:103E700043688469224D2C4024F440740D6844EA60
:103E8000052422F020028D6842EA05121D4DA84249
:103E900000D10FE01C4DA84200D10BE01B4DA84201
:103EA00000D100BF1A4DA84200D100BF194DA84251
:103EB00007D106E022F08002CD6842EA051222F026
:103EC0004002104DA8420BD00F4DA84208D00F4D14
:103ED000A84205D00E4DA84202D00E4DA84209D1ED
:103EE00023F4806323F400634D6943EA85038D69FD
:103EF00043EA8503436084614D688563026230BD97
:103F0000FF8FFFFE002C01400034014000400140C3
:103F1000004401400048014030B5056A25F4807531
:103F20000562026A4368C469224D2C4024F00304F0
:103F30000D682C4322F400728D6842EA05221E4D62
:103F4000A84200D10FE01D4DA84200D10BE01C4D4E
:103F5000A84200D100BF1B4DA84200D100BF1A4D9E
:103F6000A84207D106E022F40062CD6842EA0522A9
:103F700022F48062104DA8420BD0104DA84208D008
:103F80000F4DA84205D00F4DA84202D00E4DA842B9
:103F900009D123F4805323F400534D6943EA0513F8
:103FA0008D6943EA05134360C4614D68C5630262CD
:103FB00030BD00008FFFFEFF002C014000340140A7
:103FC00000400140004401400048014030B5056A0E
:103FD00025F480550562036A4468C269124D2A407F
:103FE00022F440720D6842EA052223F400538D68E2
:103FF00043EA05330D4DA8420BD00D4DA84208D021
:104000000C4DA84205D00C4DA84202D00B4DA84241
:1040100004D124F480444D6944EA85144460C261AB
:104020004D680564036230BDFF8FFFFE002C014028
:10403000003401400040014000440140004801407C
:1040400030B5056A25F480350562026A4368446D1F
:10405000114D2C400D682C4322F400320D8942EAA8
:1040600005420E4DA8420BD00D4DA84208D00D4D73
:10407000A84205D00C4DA84202D00C4DA84204D154
:1040800023F480334D6943EA0523436044654D685A
:104090008565026230BD00008FFFFEFF002C0140ED
:1040A000003401400040014000440140004801400C
:1040B00030B5056A25F480150562026A4368446DCF
:1040C000114D2C400D6844EA052422F400120D899C
:1040D00042EA05520D4DA8420BD00D4DA84208D022
:1040E0000C4DA84205D00C4DA84202D00B4DA84261
:1040F00004D123F480234D6943EA8523436044655A
:104100004D68C565026230BDFF8FFFFE002C014087
:10411000003401400040014000440140004801409B
:1041200030B50B461446026A056A25F001050562A2
:10413000816921F0F00141EA041122F00A021A43D8
:104140008161026230BD30B50B461446056A25F028
:10415000100505628169026A21F4704141EA043167
:1041600022F0A00242EA03128161026230BD000027
:1041700010B50248FEF7A0FC10BD0000340D002071
:1041800090F8241001F0010139B10168496821F467
:104190000031826A11430268516090F8241001F0E6
:1041A0000201022907D10168496821F48031C26AFD
:1041B00011430268516090F8241001F004010429B1
:1041C00007D10168496821F48021026B114302681C
:1041D000516090F8241001F00801082907D1016806
:1041E000496821F40041426B11430268516090F824
:1041F000241001F01001102907D10168896821F409
:104200008051826B11430268916090F8241001F094
:104210002001202907D10168896821F40051C26B6F
:1042200011430268916090F8241001F04001402988
:1042300013D10168496821F48011026C11430268AE
:104240005160016CB1F5801F07D10168496821F404
:10425000C001426C11430268516090F8241001F0D3
:104260008001802907D10168496821F40021826C0E
:10427000114302685160704738B504460020E0677A
:10428000FCF7D2FE05462068006800F00800082808
:104290000CD16FF07E402B4600224FF400110090AD
:1042A000204600F03CFB08B1032038BD20680068C0
:1042B00000F0040004280CD16FF07E402B46002251
:1042C0004FF480010090204600F029FB08B1032044
:1042D000EBE720206067A06700BF002084F8700033
:1042E00000BF00BFE1E770B50546AC6A0020A4F846
:1042F0005A00A4F852002046FEF7DCFB70BD0168AE
:10430000096821F49071026811600168896821F0E0
:1043100001010268916020218167002101667047D8
:1043200010B504462068006820F04000216808604D
:1043300020206067002060662046FEF773FF10BDF6
:104340002DE9F0410446B4F85C70A06F222824D116
:104350002068868C656D06EA07002880606D801CE9
:104360006065B4F85A00401EA4F85A00B4F85A0028
:10437000C8B92068006820F490702168086020683F
:10438000806820F00100216888602020A06700205C
:1043900020662046FEF7F4FD05E02068008B40F023
:1043A000080021680883BDE8F08170B50446B4F8C0
:1043B0005C60A06F222824D12068858CF0B2284050
:1043C000616D0870606D401C6065B4F85A00401E55
:1043D000A4F85A00B4F85A00C8B92068006820F45C
:1043E0009070216808602068806820F001002168D2
:1043F00088602020A067002020662046FEF7C0FDD0
:1044000005E02068008B40F008002168088370BD3B
:104410002DE9F84F04460026002000908246F84916
:104420002068884200D100E000BF2169A0680843ED
:1044300061690843E16940EA010920680068F149BF
:10444000084040EA0900216808602068406820F4BC
:104450004050E168084321684860D4F81890E84962
:104460002068884202D0206A40EA090920688068F2
:1044700020F4306040EA09002168886000BFE2490A
:104480002068884216D1E148006800F0030030B18E
:10449000012808D0022804D0032808D105E001250E
:1044A00007E0022505E0042503E0082501E01025CA
:1044B00000BF8DE0D6492068884216D1D3480068F5
:1044C00000F00C0030B1042808D0082804D00C28D3
:1044D00008D105E0002507E0022505E0042503E0FA
:1044E000082501E0102500BF72E0CA492068884213
:1044F00016D1C648006800F0300030B1102808D04E
:10450000202804D0302808D105E0002507E0022546
:1045100005E0042503E0082501E0102500BF57E071
:10452000BD492068884216D1B848006800F0C00034
:1045300030B1402808D0802804D0C02808D105E038
:10454000002507E0022505E0042503E0082501E039
:10455000102500BF3CE0B1492068884219D1AB4822
:10456000006800F4407048B1B0F5807F0AD0B0F523
:10457000007F05D0B0F5407F08D105E0002507E0B9
:10458000022505E0042503E0082501E0102500BF11
:104590001EE09B492068884219D19C48006800F4BD
:1045A000406048B1B0F5806F0AD0B0F5006F05D01B
:1045B000B0F5406F08D105E0002507E0022505E0D1
:1045C000042503E0082501E0102500BF00E01025C8
:1045D00000BF8B492068884272D1042D10D003DCC3
:1045E0003DB1022D13D108E0082D0DD0102D0ED1B4
:1045F0000EE0FDF769F982460DE0DFF824A20AE03B
:10460000FDF786F9824606E04FF4004A03E000BF5A
:104610000120009000BF00BFBAF1000F0AD060680F
:1046200000EB4000504503D860680003504502D2BB
:104630000120009025E1042D2ED003DC3DB1022D98
:1046400051D118E0082D3CD0102D4CD14CE0FDF795
:104650003BF94FF48071A0FB0130616849085F1895
:1046600040F10001D4F804C0624600233846FBF74D
:10467000A7FD06463BE0D4F804C04FEA5C000021E9
:10468000684BC71841EB010862460B463846414665
:10469000FBF796FD06462AE0FDF73AF94FF48071E4
:1046A000A0FB0130616849085F1840F10001D4F8AF
:1046B00004C0624600233846FBF782FD064616E03A
:1046C00022E0D4F804C04FEA5C0000214FF400035C
:1046D000C71841EB010862460B4638464146FBF7D6
:1046E0006FFD064603E000BF0120009000BF00BF41
:1046F000B6F5407F05D3B6F5801F02D22068C660AC
:10470000BFE001200090BCE0E069B0F5004F57D158
:10471000042D28D005DC4DB1012D11D0022D36D14C
:1047200018E0082D29D0102D31D131E0FDF7CCF85B
:104730004000616800EB5100B0FBF1F086B22AE066
:10474000FDF7D4F84000616800EB5100B0FBF1F0D8
:1047500086B220E03449606801EB50006168B0FB2C
:10476000F1F086B217E0FDF7D3F84000616800EB86
:104770005100B0FBF1F086B20DE04FF4803160687B
:1047800001EB50006168B0FBF1F086B203E000BFBE
:104790000120009000BF00BF102E0ED3B6F5803F61
:1047A0000BD24FF6F07006EA000BC6F342004BEA5C
:1047B000000B2068C0F80CB063E00120009060E0BE
:1047C000042D3CD005DC4DB1012D10D0022D49D176
:1047D0002CE0082D3CD0102D44D144E0FDF774F8B6
:1047E000616800EB5100B0FBF1F086B23EE0FDF7EE
:1047F0007DF8616800EB5100B0FBF1F086B235E066
:1048000000800040F369FFEF00380140881002404B
:104810000044004000480040004C00400050004070
:104820000024F400000024F40048E80118496068FE
:1048300001EB50006168B0FBF1F086B216E0FDF7C5
:1048400067F8616800EB5100B0FBF1F086B20DE053
:104850004FF40041606801EB50006168B0FBF1F07B
:1048600086B203E000BF0120009000BF00BF102E01
:1048700005D3B6F5803F02D22068C66001E0012072
:104880000090002020666066009800F003B80000E9
:104890000024F40018BCBDE8E08F426F212A1DD12E
:1048A000B0F8522062B90268126822F080020368F0
:1048B0001A600268126842F0400203681A600DE054
:1048C000C16C0A88C2F3080203681A85C26C921C84
:1048D000C264B0F85220521EA0F852207047416FB7
:1048E00021291BD1B0F8521061B90168096821F083
:1048F0008001026811600168096841F040010268A6
:1049000011600BE0C16C097802681185C16C491C0B
:10491000C164B0F85210491EA0F8521070472DE93A
:10492000F04104460D4617469846069E1FE0701C4F
:10493000E8B1FCF779FBA0EB0800B04200D8B6B9AB
:104940002068006820F4D0702168086020688068C2
:1049500020F001002168886020206067A06700BF08
:10496000002084F8700000BF0320BDE8F0812068BB
:10497000C0692840A84201D1012000E00020B842CF
:10498000D5D00020F1E7000010B50248FEF794F8FA
:1049900010BD0000B40D002010B50248FEF78CF8E1
:1049A00010BD0000340E002010B50248FEF784F858
:1049B00010BD0000B40E002000BFFEE710B59FED53
:1049C000430A10EE100A424908609FED400A10EEBB
:1049D000100A48609FED3D0A10EE100A88609FEDB6
:1049E0003B0A10EE100AC8609FED3A0A10EE100A5A
:1049F00008619FED380A10EE100A48619FED350AF4
:104A000010EE100A88619FED330A10EE100AC8619B
:104A10009FED310A10EE100A304908609FED2E0A12
:104A200010EE100A486000202D49487001200870DF
:104A30009FED260A10EE100A2A4908609FED230A0E
:104A400010EE100A48609FED230A10EE100A8860ED
:104A50009FED200A10EE100AC8609FED1F0A10EEAD
:104A6000100A214908609FED1C0A10EE100A4860E8
:104A700001201E4908709FED1E0A10EE100AC1F8B1
:104A800001009FED1C0A10EE100AC1F805009FED11
:104A90001A0A10EE100AC1F809009FED180A10EE6C
:104AA000100AC1F80D000021154A11605160FEF78F
:104AB00033FE134A01210B4800F0CAFC104A0121C1
:104AC000094800F035FCFEF74FFE10BD0000C8425B
:104AD000340F00200000A04200004842B80000202F
:104AE000C0000020540F0020C2000020640F0020EE
:104AF000D6F54E4368D1574246364C4269AF6042C4
:104B0000D00000207FB5FEB008AD4FF4C87205F1AB
:104B10001001284601F0ACF805468948286000BF1E
:104B200008A801F025F8064686A2314606A804F03A
:104B30002EF8DDE906017D917C9083A17CA804F02C
:104B400048FE82A2314606A804F021F8DDE90601FC
:104B50007B917A907FA17AA804F03BFE7EA2314639
:104B600006A804F014F8DDE90601799178907CA19B
:104B700078A804F02EFE81A1304603F069FE7FA2E2
:104B8000314606A804F003F8DDE906017DA275911F
:104B9000749074A904A804F038FEDDE9040177914B
:104BA00076907EA976A804F022FE74A2314606A86B
:104BB00003F0EDFFDDE9060173A27191709070A919
:104BC00004A804F022FEDDE90401739172907FA92C
:104BD00072A804F00CFE8098002815DB67A231460D
:104BE00002A803F0D4FFDDE9020169A2CDE90401C6
:104BF00004A9684604F009FEDDE90001CDE90601DB
:104C000080A906A804F0F3FD8198002815DB5BA2BB
:104C1000314602A803F0BBFFDDE902015FA2CDE946
:104C2000040104A9684604F0F0FDDDE90001CDE9C6
:104C3000060181A906A804F0DAFD8698002815DB94
:104C40004EA2314602A803F0A2FFDDE9020156A2FE
:104C5000CDE9040104A9684604F0D7FDDDE90001AF
:104C6000CDE9060186A906A804F0C1FD87980028B1
:104C700015DB42A2314602A803F089FFDDE90201FB
:104C80004CA2CDE9040104A9684604F0BEFDDDE9AB
:104C90000001CDE9060187A906A804F0A8FD8898BF
:104CA000002815DB35A2314602A803F070FFDDE9CC
:104CB000020144A2CDE9040104A9684604F0A5FD5F
:104CC000DDE90001CDE9060188A906A804F08FFD01
:104CD0008998002815DB29A2314602A803F057FF66
:104CE000DDE902013CA2CDE9040104A9684604F013
:104CF0008CFDDDE90001CDE9060189A906A804F0D3
:104D000076FD002403E0002038490855641CB4F502
:104D1000C87FF8DB4FF4C8723449304604F001FF15
:104D200008A800F0A2FF32A13048FBF7A1FA08ADB5
:104D3000284600F0AFFF054601200DF5027D70BD4D
:104D4000749C00086964000031303000766572732D
:104D5000696F6E00312E30006D6574686F640000FD
:104D60007468696E672E6576656E742E70726F70EA
:104D7000657274792E706F737400000070617261D7
:104D80006D73000049440000537461747573000032
:104D90005265645361756365000000004772656584
:104DA0006E5361756365000043686F707374696367
:104DB0006B73000052656453617563654465746587
:104DC00063740000477265656E5361756365446581
:104DD000746563740000000043686F7073746963E6
:104DE0006B7344657465637400000000E802002082
:104DF0000D00000010B50446204600F095F920464D
:104E000000F032FA10BD00002DE9F043ADF5297D28
:104E10004FF4C870584908606EA803F0C1FE0A221A
:104E200056496EA804F07DFB814655A24946684666
:104E300003F0ADFEDDE90001A7ACA891A79000BF8B
:104E400000BF00BFD4E900673946304604F0F4FDE6
:104E500000BF00BF8046414666A8FBF746FA4AA15C
:104E600066A800F04BFF60B149A000F04FFF4E482C
:104E70000078012802D102204B49087042A003F0BB
:104E80003FFC4AA166A800F039FF40B149A000F0FC
:104E90003DFF01204D49087044A003F031FC4CA1B6
:104EA00066A800F02BFF40B14AA000F02FFF0120C0
:104EB0004E49087046A003F023FC4DA166A800F0FF
:104EC0001DFF98B14EA000F021FF3748007804285C
:104ED00009D105203449087002205249086052491E
:104EE00008605249086042A003F00AFC24A1484629
:104EF00003F0C6FC4EA1484603F0C2FC4EA1484652
:104F000003F0BEFC4EA24946684603F040FEDDE9D0
:104F10000001A691A590C820A4A9A490A5A804F07A
:104F200066FC49A1484603F093FC002503E00020FD
:104F300002A948556D1CB5F5C87FF8DB4FF4C8725F
:104F400002A9484604F0EDFD41A102A8FBF790F943
:104F500002A803F09BFB6EA800F087FE00203D49ED
:104F600008704FF49670044908606EA800F04AFE7D
:104F70000DF5297DBDE8F0830400002058010020D4
:104F80006D6574686F640000537461727400000092
:104F90005B494E464F5D5B534552564943455D5311
:104FA000746172740D0A0000310000205061757345
:104FB000650000005B494E464F5D5B5345525649C4
:104FC00043455D50617573650D0A00002B0000209C
:104FD000456E64005B494E464F5D5B5345525649F2
:104FE00043455D456E640D0A000000002A00002064
:104FF000537570706C69657352656672657368008D
:105000005B494E464F5D5B534552564943455D53A0
:105010007570706C69657320526566726573680D92
:105020000A000000180000201C00002020000020C2
:1050300076657273696F6E00706172616D730000E6
:10504000636F64650000000064617461000000002B
:105050000D0000003000002071B5ADF5237D66A87D
:1050600003F09EFD66A800F083FD064628A23146A7
:10507000684603F08CFDDDE90001A291A190A3A98F
:10508000A1A804F0B4FB23A23146684603F07FFDDB
:10509000DDE90001A0919F9001209EA99E909FA80C
:1050A00004F0A5FB1DA23146684603F070FDDDE962
:1050B00000019D919C9000209EA99E909CA804F0C8
:1050C00096FB002403E0002002A90855641CB4F5F7
:1050D000C87FF8DB4FF4C87202A9304604F021FD06
:1050E0000FA102A8FBF7C4F802A8FBF7E9F885B204
:1050F0000A232A4602A90B48FDF7ECFF66A800F038
:10510000B4FD66A800F07EFD0DF5247D70BD0000A5
:1051100069640000726561647900000061636B007E
:105120000D000000340D00202DE9FC5F064606F15D
:105130002A00019006F28520009006F5D7748CE0D5
:1051400000BF0198D0F80E00C7B2062F00DA85E044
:1051500000210198FEF7E6FC90F800A0BAF1AA0F32
:1051600004D000210198FEF7ECFC76E001210198C3
:10517000FEF7D8FC90F800B0BBF1AA0F08D00021D0
:105180000198FEF7DEFC00210198FEF7DAFC64E0EE
:1051900002210198FEF7C6FC0578AA2D04DB002148
:1051A0000198FEF7CEFC58E0281D874200DA55E052
:1051B000AA2F04DB00210198FEF7C3FC4DE04FF05D
:1051C0000008C1460AE009F103010198FEF7AAFCB4
:1051D0000078404400F0FF0809F10109681C81458E
:1051E000F1D3B8F1000F0CD000210198FEF7A9FC13
:1051F00000210198FEF7A5FC00210198FEF7A1FC13
:105200002BE021460198FEF79CFC611C0198FEF7FB
:1052100098FCA11C0198FEF794FCE11C0198FEF794
:1052200090FC211D0198FEF78CFC4FF0000907E06F
:10523000601D00EB09010198FEF783FC09F10109EB
:10524000A81E4845F4D804F1AC010198FEF779FC9A
:1052500021460098FEF7A1FC00BF71E700BF00F0F7
:1052600000B83CBCBDE8C09F2DE9F047064606F2F9
:105270005B29374654E000214846FEF753FC0446BC
:1052800000BF7868D7F80E10401AA178091D88422F
:1052900044D3AA20207060700025E0782844C5B26D
:1052A00020792844C5B2002004E0611D095C29442E
:1052B000CDB2401CA178891E8142F6D8684284F89C
:1052C000AC0021463846FEF768FC611C3846FEF704
:1052D00064FCA11C3846FEF760FCE11C3846FEF772
:1052E0005CFC211D3846FEF758FC4FF0000807E033
:1052F000601D00EB08013846FEF74FFC08F101087D
:10530000A078801E4045F3D804F1AC013846FEF782
:1053100044FC00214846FEF714FC00E005E000BF15
:1053200000BFD9F80E000028A5D100BFBDE8F08766
:1053300070B5ACB004460D461646AC2101A8FAF78C
:105340008CFF53208DF8040001208DF805008DF8A6
:10535000065008208DF807009DF80720214602A876
:10536000FAF762FF01A90348FEF7A5F901202CB066
:1053700070BD0000453A002000B5B9B0442128A80E
:10538000FAF76BFF142123A8FAF767FF882101A819
:10539000FAF763FF01202890000429900220329040
:1053A000032128A8C162012101631421416307215F
:1053B00081630221C1630164FCF720FB08B1FBF7A4
:1053C000D1FC0F20239003202490002025902690CC
:1053D0002790042123A8FCF7B3F908B1FBF7C2FC1E
:1053E0000F20019000200F9010901190129001A8B2
:1053F000FBF73CFF08B1FBF7B5FC4FF40070FBF77F
:10540000E7FE08B1FBF7AEFC39B000BDF0B5ABB0BC
:1054100004460D4616461F46AC216846FAF71DFFA6
:105420003F208DF8000001208DF801008DF802600A
:1054300002208DF803008DF804408DF80550694670
:105440000248FEF738F901202BB0F0BD453A0020A4
:1054500070B5ACB004460D461646AC2101A8FAF76B
:10546000FCFE51208DF8040001208DF805008DF818
:10547000065010208DF807009DF80720214602A84D
:10548000FAF7D2FE01A90348FEF715F901202CB066
:1054900070BD0000453A002010B5ACB00446022CA7
:1054A00051D101208DF804009FED8B0A10EE100AF7
:1054B000CDF805009FED890A10EE100ACDF809001D
:1054C0009FED870A10EE100ACDF80D009FED850ABA
:1054D00010EE100ACDF8110002208DF815009FED96
:1054E000820A10EE100ACDF816009FED800A10EE29
:1054F000100ACDF81A009FED7E0A10EE100ACDF8C2
:105500001E009FED780A10EE100ACDF8220002204E
:105510008DF826009FED770A10EE100ACDF82700CF
:105520009FED750A10EE100ACDF82B009FED730A5F
:1055300010EE100ACDF82F009FED6A0A10EE100A47
:10554000CDF8330052E0012C50D101208DF8040039
:105550009FED6B0A10EE100ACDF805009FED690A69
:1055600010EE100ACDF809009FED670A10EE100A40
:10557000CDF80D009FED5B0A10EE100ACDF811007A
:1055800002208DF815009FED610A10EE100ACDF88B
:1055900016009FED5F0A10EE100ACDF81A009FED7D
:1055A0005D0A10EE100ACDF81E009FED4E0A10EEB7
:1055B000100ACDF8220002208DF826009FED4D0A3A
:1055C00010EE100ACDF827009FED4B0A10EE100ADE
:1055D000CDF82B009FED490A10EE100ACDF82F00F0
:1055E0009FED400A10EE100ACDF8330001208DF82F
:1055F00037009FED490A10EE100A0E909FED470A02
:1056000010EE100A0F909FED460A10EE100A10904F
:105610009FED440A10EE100A1190434A012101A89F
:1056200000F082FAFEF7A0F84FF4FA60FBF7CAFB2D
:105630003D4A01210DF1150000F076FAFEF794F8CD
:105640004FF4FA60FBF7BEFB374B012211461046C0
:10565000FFF7DCFEFEF788F84FF4FA60FBF7B2FBC9
:10566000314A01210DF1260000F05EFAFEF77CF8C8
:105670004FF4FA60FBF7A6FB2B4A01210DF137002E
:1056800000F052FAFEF770F84FF4FA60FBF79AFB5D
:10569000254B012200211046FFF7B8FEFEF764F803
:1056A0004FF4FA60FBF78EFB1F4A01211F4800F000
:1056B0003BFAFEF759F84FF4FA60FBF783FB1A4BFD
:1056C000012200210846FFF7A1FEFEF74DF818A0C1
:1056D00000F01CFB2CB010BD0A4729437F1BCD42B4
:1056E000B9BC19422A296C42DC4629434F6FD24289
:1056F0001E27B0413F4629438A6ED242303BE042EA
:10570000E5C108438669CF424C772742D1C108439F
:105710006C69CF42BC85B54166D62D438B5D41C3D4
:1057200052181F43A8353241D0000020640F0020DA
:105730005B494E464F5D5B444F424F545D47726933
:105740007020477265656E5361756365205375639C
:10575000636573730D0A000010B5ACB00446022CEB
:1057600051D101208DF804009FED8B0A10EE100A34
:10577000CDF805009FED890A10EE100ACDF809005A
:105780009FED870A10EE100ACDF80D009FED850AF7
:1057900010EE100ACDF8110002208DF815009FEDD3
:1057A000820A10EE100ACDF816009FED800A10EE66
:1057B000100ACDF81A009FED7E0A10EE100ACDF8FF
:1057C0001E009FED780A10EE100ACDF8220002208C
:1057D0008DF826009FED770A10EE100ACDF827000D
:1057E0009FED750A10EE100ACDF82B009FED730A9D
:1057F00010EE100ACDF82F009FED6A0A10EE100A85
:10580000CDF8330052E0012C50D101208DF8040076
:105810009FED6B0A10EE100ACDF805009FED690AA6
:1058200010EE100ACDF809009FED670A10EE100A7D
:10583000CDF80D009FED5B0A10EE100ACDF81100B7
:1058400002208DF815009FED610A10EE100ACDF8C8
:1058500016009FED5C0A10EE100ACDF81A009FEDBD
:105860005C0A10EE100ACDF81E009FED4E0A10EEF5
:10587000100ACDF8220002208DF826009FED550A6F
:1058800010EE100ACDF827009FED530A10EE100A13
:10589000CDF82B009FED510A10EE100ACDF82F0025
:1058A0009FED400A10EE100ACDF8330001208DF86C
:1058B00037009FED4B0A10EE100A0E909FED490A3B
:1058C00010EE100A0F909FED480A10EE100A10908B
:1058D0009FED460A10EE100A1190454A012101A8D9
:1058E00000F022F9FDF740FF4FF4FA60FBF76AFA87
:1058F0003F4A01210DF1150000F016F9FDF734FFC4
:105900004FF4FA60FBF75EFA394B0122114610465C
:10591000FFF77CFDFDF728FF4FF4FA60FBF752FA22
:10592000334A01210DF1260000F0FEF8FDF71CFFBF
:105930004FF4FA60FBF746FA2D4A01210DF13700CA
:1059400000F0F2F8FDF710FF4FF4FA60FBF73AFAB7
:10595000274B012200211046FFF758FDFDF704FFF9
:105960004FF4FA60FBF72EFA214A0121214800F09A
:10597000DBF8FDF7F9FE4FF4FA60FBF723FA1C4B56
:10598000012200210846FFF741FDFDF7EDFE1AA0B8
:1059900000F0BCF92CB010BDBCDD864340F3E842FA
:1059A000CEC881427998804218DE8643DEF3E84211
:1059B0003491B1417DDE864388F4E8421886034382
:1059C000D56761436666EB42E9C88142CF676143B0
:1059D0001069B541FD6761438E66EB42138208434F
:1059E00066D62D438B5D41C352181F43A835324103
:1059F000D0000020640F00205B494E464F5D5B44A1
:105A00004F424F545D47726970205265645361750F
:105A1000636520537563636573730D0A00000000AE
:105A200010B524A000F072F9012220214FF090401F
:105A3000FBF7F4FA002280214FF09040FBF7EEFADA
:105A40000020264908702649087026490860264922
:105A5000087002202549086025490860254908602A
:105A60000120254908700020244908604FF4C870BF
:105A700023490860234908602348FCF7B5FB00214F
:105A80002248FCF74FFE012221492248FDF706FA81
:105A9000012221492148FDF701FA0122204921482C
:105AA000FDF7FCF9FEF78AFF00F03AFC08B1FAF7BF
:105AB000D5FC10BD0D0A3D3D3D3D3D3D456E657437
:105AC000722064656D6F206170706C6963617469C8
:105AD0006F6E3D3D3D3D3D3D0D0A00002A0000201A
