:020000040800F2
:10000000F84200209D010008AB2C0008C52800081C
:10001000112C0008BD0B00084D3B0008000000003B
:10002000000000000000000000000000DD300008BB
:10003000BF0B000800000000AD2C0008DF300008F6
:10004000B7010008B7010008B7010008B7010008B0
:10005000B7010008B7010008C10B0008B70100088C
:10006000B7010008B7010008B7010008B701000890
:10007000B7010008B7010008B7010008B701000880
:10008000B7010008B7010008B7010008B701000870
:10009000B7010008B7010008B7010008B701000860
:1000A000B7010008B7010008B7010008B701000850
:1000B00029310008B701000835310008B7010008F0
:1000C000B7010008B7010008B7010008B701000830
:1000D000B7010008293B0008353B0008413B0008F8
:1000E000B7010008B7010008B7010008B701000810
:1000F000B7010008B7010008B7010008B701000800
:10010000B7010008B7010008B7010008B7010008EF
:1001100099350008B7010008B7010008B7010008C9
:10012000B7010008B7010008B7010008B7010008CF
:10013000B7010008B7010008B7010008B7010008BF
:10014000B7010008B7010008B7010008B7010008AF
:10015000B7010008B7010008B7010008B70100089F
:10016000B7010008B7010008B7010008B70100088F
:10017000B7010008B7010008B7010008000000003F
:10018000B7010008B7010008DFF80CD000F0E4F870
:1001900000480047D1520008F84200200648804736
:1001A00006480047FEE7FEE7FEE7FEE7FEE7FEE75C
:1001B000FEE7FEE7FEE7FEE7E530000889010008FC
:1001C0002DE9F05F0546002092469B46884606468C
:1001D000814640241BE0284641464746224600F01F
:1001E000AAF853465A46C01A914110D311461846F0
:1001F000224600F091F82D1A67EB01084F4622467F
:100200000120002100F088F817EB00094E41201E64
:10021000A4F10104DFDC484631462A46434600F09B
:1002200000B830BCBDE8C09F40EA01039B0703D083
:1002300009E008C9121F08C0042AFAD203E011F825
:10024000013B00F8013B521EF9D27047D2B201E0E7
:1002500000F8012B491EFBD270470022F6E710B5CB
:1002600013460A4604461946FFF7F0FF204610BD24
:10027000421E12F8013F002BFBD111F8013B02F89E
:10028000013B002BF9D1704730B505462A460B4695
:1002900012F8010B13F8014B08B1A042F8D01CB1C1
:1002A000002802D06D1CF1E7284630BDCAB2401EBE
:1002B00010F8011F8A4202D00029F9D100207047AE
:1002C000421C10F8011B0029FBD1801A704710B5A1
:1002D000002200E0521C835C8C5CA34201D1002B05
:1002E000F8D1D8B2E1B2401A10BD034611F8012B83
:1002F00000F8012B002AF9D11846704710B5484381
:10030000044605F0C1F9002805D00021002C02D0D8
:10031000641E0155FAE710BD202A04DB203A00FADA
:1003200002F1002070479140C2F1200320FA03F34C
:10033000194390407047202A04DB203A21FA02F04A
:100340000021704721FA02F3D040C2F1200291400F
:100350000843194670470000064C074D06E0E06868
:1003600040F0010394E8070098471034AC42F6D3FC
:10037000FFF70EFF607D0008807D000870B58C18C7
:1003800010F8015B15F0070301D110F8013B2A11A9
:1003900006D110F8012B03E010F8016B01F8016B96
:1003A0005B1EF9D12B0705D40023521E0DD401F892
:1003B000013BFAE710F8013BCB1A921C03E013F85B
:1003C000015B01F8015B521EF9D5A142D8D3002090
:1003D00070BD0000F0B500209A4EE7B005464FF41E
:1003E000C8773554401CB842FBDB97A297A19AA06E
:1003F0008DE807009C4C9AA3394603A8E26904F0F3
:10040000F1FA03A999A004F0DDFA9F4A9FA103A87D
:1004100004F026FF9C49A6A004F0D4FA002035542D
:10042000401CB842FBDB984988A0CDE900018AA3B3
:1004300039468448226A04F0D5FA05228148616869
:1004400004F068FD00287DD0A0A004F0BBFA0020D5
:100450003554401CB842FBDB7BA0009080A339469A
:100460007848626A04F0BEFA05227648616804F0B2
:1004700051FD002867D09FA004F0A4FA0020355455
:10048000401CB842FBDB71A339466E48A26A04F0F7
:10049000A9FA05226B48616804F03CFD00286DD084
:1004A0009EA004F08FFA05226168E06A04F032FD34
:1004B00000287CD0A3A004F085FA05226168206B97
:1004C00004F028FD002873D0AAA004F07BFA0522CE
:1004D0006168606B04F01EFD00286AD0AEA004F0D5
:1004E00071FA05226168A06B04F014FD00287DD02C
:1004F000B3A004F067FA05226168E06B04F00AFD1E
:10050000002874D0BAA004F05DFAD4E910011422D6
:1005100004F000FD00286BD0C2A004F053FA0020C4
:100520003554401CB842FBDB4BA0009047A3394632
:100530004448A26C04F056FA05224248616804F06F
:10054000E9FC01E06EE06FE000286FD0BFA004F08E
:1005500039FA00203554401CB842FBDB3EA0009025
:100560003AA339463748A26D04F03CFA14223548C4
:10057000A16E04F0CFFC002860D000E057E0BCA0E2
:1005800004F020FA00203554401CB842FBDB32A0B6
:1005900000902EA339462B48E26D04F023FA142272
:1005A0002848A16E04F0B6FC002848D002E040E0E4
:1005B00041E042E0B9A004F005FA00203554401CA7
:1005C000B842FBDB24A0009020A339461D48226ED0
:1005D00004F008FA14221B48A16E04F09BFC0028CA
:1005E0002ED0B9A004F0EEF9002002E008E209E202
:1005F0000AE239463554401C8842FBDB16A00090C5
:1006000012A31048626E04F0EDF914220D48A16E99
:1006100004F080FC002814D0B6A004F0D3F9012027
:1006200067B0F0BDBFA0FAE1C7A0F8E1EEE1D0A04D
:10063000F5E1D9A0F3E1E6A0F1E1DFE1E8E1E9E1EC
:10064000EAE1EBE1780400203939390061315832B0
:100650007673783049344C00494E44310000000034
:100660005361786F6E000000340000205B494E46F5
:100670004F5D5B4D5154545D636F6E74656E743A9B
:100680000D0A25730D0A0000080600206773326901
:10069000413950394365634B373776746962374A5D
:1006A0006C6432687A626B677937613900000000E8
:1006B0005B494E464F5D5B534841315D52657375F2
:1006C0006C743A0D0A25730D0A0000005B494E4612
:1006D0004F5D5B454D57333038305D416C6920418B
:1006E0007574682053657420537563636573730D67
:1006F0000A0000005B494E464F5D5B454D57333065
:1007000038305D416C6920436C69656E74205365B7
:100710007420537563636573730D0A005B494E461D
:100720004F5D5B454D57333038305D416C69205328
:100730006F636B65742053657420537563636573D1
:10074000730D0A005B494E464F5D5B454D57333094
:1007500038305D416C692043657274696669636114
:1007600074652056657269667920536574204F461A
:10077000460D0A005B494E464F5D5B454D57333091
:1007800038305D416C692053534C20536574204FC1
:1007900046460D0A000000005B494E464F5D5B4532
:1007A0004D57333038305D416C69204D51545420E1
:1007B0005265636F6E6E656374204F6E0D0A0000A4
:1007C0005B494E464F5D5B454D57333038305D4198
:1007D0006C69204D515454204175746F737461726B
:1007E00074205475726E204F46460D0A00000000BA
:1007F0005B494E464F5D5B454D57333038305D4168
:100800006C69204D515454204B65657020416C69D2
:1008100076652054696D65203530205365636F6EB1
:10082000640D0A005B494E464F5D5B454D573330C2
:1008300038305D416C69204D5154542053746172BD
:100840007420537563636573730D0A005B494E46EC
:100850004F5D5B454D57333038305D5075622053E6
:10086000657420537563636573730D0A000000009F
:100870005B494E464F5D5B454D57333038305D53D5
:100880007562205374617274205365727669636572
:1008900020537563636573730D0A00005B494E4610
:1008A0004F5D5B454D57333038305D537562205096
:1008B000617573652053657276696365205375634E
:1008C000636573730D0A00005B494E464F5D5B45DF
:1008D0004D57333038305D53756220456E64205378
:1008E00065727669636520537563636573730D0A7A
:1008F000000000005B494E464F5D5B454D5733306D
:1009000038305D5375622052656672657368205396
:1009100065727669636520537563636573730D0A49
:10092000000000005B4552524F525D5B454D57330E
:100930003038305D416C69204175746820536574AE
:10094000204661696C0D0A005B4552524F525D5B57
:10095000454D57333038305D416C6920436C6965D3
:100960006E7420536574204661696C0D0A000000A6
:100970005B4552524F525D5B454D57333038305DC9
:10098000416C6920536F636B657420536574204616
:1009900061696C0D0A0000005B4552524F525D5B6D
:1009A000454D57333038305D416C69204365727472
:1009B000696669636174652056657269667920436A
:1009C000616E6E6F7420536574204F46460D0A00A9
:1009D0005B4552524F525D5B454D57333038305D69
:1009E000416C692053534C2043616E6E6F742053E9
:1009F0006574204F46460D0A000000000AA00EE074
:100A000016A00CE023A00AE02FA008E038A006E022
:100A10003FA004E049A002E053A000E05CA003F086
:100A2000D1FF0020FCE500005B4552524F525D5B58
:100A3000454D57333038305D416C69204D51545429
:100A4000205265636F6E6E6563742043616E6E6FD6
:100A500074205475726E204F6E0D0A005B45525221
:100A60004F525D5B454D57333038305D416C6920E6
:100A70004D515454204175746F73746172742043E6
:100A8000616E6E6F74205475726E204F46460D0A6B
:100A9000000000005B4552524F525D5B454D57339D
:100AA0003038305D416C69204D515454204B6565A0
:100AB0007020416C6976652054696D6520536574BA
:100AC000204661696C0D0A005B4552524F525D5BD6
:100AD000454D57333038305D416C69204D51545489
:100AE000205374617274204661696C0D0A00000025
:100AF0005B4552524F525D5B454D57333038305D48
:100B000050756220536574204661696C0D0A0000BF
:100B10005B4552524F525D5B454D57333038305D27
:100B200053756220537461727420536572766963E1
:100B300065204661696C0D0A000000005B45525259
:100B40004F525D5B454D57333038305D53756220F1
:100B500050617573652053657276696365204661DF
:100B6000696C0D0A000000005B4552524F525D5BFC
:100B7000454D57333038305D53756220456E6420E3
:100B800053657276696365204661696C0D0A0000E1
:100B90005B4552524F525D5B454D57333038305DA7
:100BA000537562205265667265736820536572766C
:100BB000696365204661696C0D0A0000FEE77047B5
:100BC000012000F043B8704710B590F825100024BC
:100BD000022903D00421C16301241AE001680A68D4
:100BE00022F00E020A6001680A6822F001020A601F
:100BF00090F84410036C01F01C02012101FA02F28A
:100C00005A6080F82510002180F82410816B01B112
:100C10008847204610BD000070B5044600F00CF96E
:100C20000546601C02D004484068044400F004F902
:100C3000401BA042FAD370BDD8000020012802D189
:100C4000014964208860704700000020044910B505
:100C50000A68024202D00860FFF7F0FF10BD0000F2
:100C6000140401402DE9F84FDFF898B100234FF04C
:100C7000010C4FF0030A4FF00F090BF1040EB9E01D
:100C80000CFA03F4224070D04D68022D01D0122DD1
:100C90000ED1DD0800EB8508D8F820505E07F70E6E
:100CA00009FA07F6B5430E69BE402E43C8F8206026
:100CB00007685E0091F804800AFA06F508F0030858
:100CC000AF4308FA06F848EA0708C0F800804F6802
:100CD000012F05D0022F03D0112F01D0122F13D1D5
:100CE000D0F80880CF6828EA0508B74047EA080727
:100CF0008760D0F804800F7928EA0408C7F300174A
:100D00009F4047EA08074760D1F804806FEA080768
:100D1000BF0706D1C76AA743C8F3C0049C403C4341
:100D2000C462C468AC438D68B5402543C5604C6857
:100D3000E4005ED5344C256E45F001052566246E31
:100D400023F0030504F001040094304C2E19B4681C
:100D50009D072F0F09FA07F5AC43B0F1904F05D06E
:100D60002B4DA84204D101251CE042E0002519E0EA
:100D7000284DA84201D1022514E0274DA84201D1F7
:100D800003250FE0254DA84201D104250AE0244D9A
:100D9000A84201D1052505E0224DA84201D1062532
:100DA00000E00725BD402543B560DBF800405D4607
:100DB0004E689443F60300D514432C60DEF80040DF
:100DC00075464E689443B60300D514432C600D4D10
:100DD00008352C684E689443F60200D514432C6005
:100DE000084D0C352C684E689443B60200D5144368
:100DF0002C605B1C0A6832FA03F57FF441AF00F007
:100E000013B800000004014000100240000001403F
:100E10000004004800080048000C0048001000488A
:100E2000001400480018004818BCBDE8E08F0AB163
:100E30008161704781627047014880687047000097
:100E4000D8000020024881684268114481607047E0
:100E5000D800002010B50024032000F071F8002015
:100E600000F008F808B1012401E000F025F8204660
:100E700010BD000070B50E4E05460024706898B194
:100E80004FF47A71B1FBF0F00A490968B1FBF0F058
:100E900000F0F2FD40B9102D06D200222946501E66
:100EA00000F02EF8356000E00124204670BD0000FF
:100EB000D8000020E4000020094808B5016E41F088
:100EC00001010166016E01F001010091816D41F0A7
:100ED00080518165806D00F08050009008BD000059
:100EE00000100240002809DB00F01F0201219140A0
:100EF0004009800000F1E020C0F8001170470000B8
:100F0000F0B40E4B1B680C46C3F30223C3F1070574
:100F1000042D00D90425191D072901D2002300E062
:100F2000DB1E012606FA05F1491E214099409E402C
:100F3000761E16403143F0BC03F080BD0CED00E09E
:100F4000064900F0070208684FF6FF03184040EA20
:100F50000220034A10430860704700000CED00E0D7
:100F60000000FA051649B0F5007F0868C0F341207B
:100F700009D0022805D0086820F4C06040F48060E1
:100F80000860002070470128FBD0086820F4C0608A
:100F900040F4007008600B483222006850430A4A4F
:100FA000B0FBF2F0401C00E0401E4A69520501D53A
:100FB0000028F9D148694005E3D5032070470000B7
:100FC00000700040E400002040420F00024800682A
:100FD00000F4C06070470000007000402DE9F84F39
:100FE000044600270088E54D3E46010504F1200B2C
:100FF0001DD5606E78B1B0F5800F11D0B0F5000F3F
:1010000004D0B0F5400F22D001270FE0E86840F48B
:101010008030E8601BE00021201D01F089FE03E024
:101020000021584601F01AFF070010D03E462088E4
:10103000C00426D5A06EC0B1B0F1807F1AD0B0F147
:10104000007F0DD0B0F1407F19D0012718E0D5F80E
:101050008800616E20F440000843C5F88800E6E788
:10106000E86840F48030E86009E00021201D01F0CC
:101070005FFE03E00021584601F0F0FE0746F7B19D
:101080003E46206880033AD5A86D4FF00008C000A6
:1010900009D4A86D40F08050A865A86D4FF00108F4
:1010A00000F080500090DFF8D8A2DAF8001041F488
:1010B0008071CAF80010FFF7BFFE814610E0D5F836
:1010C0008800A16E20F040700843C5F88800D8E77A
:1010D000FFF7B2FEA0EB0900022801D9032705E0C3
:1010E000DAF80000C005F3D5002F7CD04FEA0706E0
:1010F000B8F1000F03D0A86D20F08050A8652078CB
:10110000C00707D0D5F88800A16B20F00300084382
:10111000C5F888002078800707D5D5F88800E16BEE
:1011200020F00C000843C5F888002078400707D558
:10113000D5F88800216C20F030000843C5F88800FD
:101140002078000707D5D5F88800616C20F0C00032
:101150000843C5F888002078C00607D5D5F8880070
:10116000A16C20F440700843C5F888002078800600
:1011700007D5D5F88800E16C20F440600843C5F835
:1011800088002088800507D5D5F88800E16D20F417
:1011900040200843C5F888002088400507D5D5F8C9
:1011A0008800216E20F440100843C5F8880020789C
:1011B000400607D5D5F88800216D20F4405008433B
:1011C000C5F888002078000607D5D5F88800616D3D
:1011D00020F440400843C5F888002088C00509D5A0
:1011E000D5F8880000E01CE0A16D20F440300843F1
:1011F000C5F8880020884FF0006780044FF08068B1
:101200004FD5D5F88800E16E20F040600843C5F85E
:101210008800E06EB8423CD1E86840F48010E86095
:101220003FE0D5F8900010F4407015D0D4F8841049
:10123000814211D0D5F89000D5F8901020F440707C
:1012400041F48031C5F89010D5F8901021F4803128
:10125000C5F89010C5F89000C00710D0FFF7ECFD5E
:10126000074641F2883906E0FFF7E6FDC11B494514
:1012700001D903263CE7D5F890008007F4D5D5F8CE
:101280009000D4F8841020F440700843C5F8900012
:101290002EE7404505D10121201D01F049FD00B197
:1012A00006462068000317D5D5F88800216F20F086
:1012B00040600843C5F88800206FB84204D1E86850
:1012C00040F48010E86007E0404505D10121201D71
:1012D00001F02EFD00B106462068400317D5D5F871
:1012E0008800616F20F040600843C5F88800606F97
:1012F000B84204D1E86840F48010E86007E0404557
:1013000005D10121201D01F013FD00B10646208802
:1013100040041AD5D5F88800A16F20F0405008434A
:10132000C5F88800A06FB0F1805F03D0B0F1005F16
:1013300005D00AE00221201D01F0FAFC03E00221A1
:10134000584601F08BFD00B106462088000407D501
:10135000D5F88800E16F20F080400843C5F8880088
:101360002068C00307D555F8880FD4F8801020F006
:10137000004008432860304600F004B800100240E6
:101380000070004018BCBDE8E08F00002DE9F04778
:101390000F46050058D0404E306800F00700B842B4
:1013A00009D2306820F0070038433060306800F020
:1013B0000700B84248D12878384CC0072CD068685C
:1013C000032811D0022812D0216898B149050029BC
:1013D0003ADAA16821F003010143A160FFF72CFD77
:1013E000804641F2883910E021688901EFE72168E1
:1013F0008903ECE78907EAE7FFF71EFDA0EB080188
:10140000494502D90320BDE8F087A068696800F06B
:101410000C00B0EB810FEFD12878800705D5A068CC
:10142000A96820F0F0000843A060306800F00700D1
:10143000B8420BD9306820F007003843306030687C
:1014400000F00700B84201D00120DCE7287840070F
:1014500005D5A068E96820F4E0600843A06028781A
:10146000000706D5A068296920F4605040EAC10051
:10147000A06000F03FF8A168094AC1F30311515C74
:1014800001F01F01C8400749086007480068BDE82F
:10149000F047FFF7EFBC00000020024000100240C0
:1014A0005C790008E4000020D800002005480649C7
:1014B00000688968054AC1F30221515C01F01F01EF
:1014C000C8407047E4000020001002409C790008EA
:1014D0000548064900688968054AC1F3C221515C84
:1014E00001F01F01C8407047E400002000100240D6
:1014F0009C79000870B52549002318468A68CC6895
:1015000012F00C0204F00306214C4FEA640509D0E6
:101510000C2A05D0042A32D0082A00D1284670BDF2
:10152000012E10D10B681B0704D4D1F89430C3F3FB
:10153000032302E00B68C3F30313164E56F823305F
:10154000DAB10C2AEBD1C86800F00300022818D0E9
:10155000032818D01846CA68CB68C2F30212C3F336
:1015600006234343521CB3FBF2F2C868C0F3416048
:10157000401C4000B2FBF0F070BD184670BD204624
:1015800070BD2046E7E72846E5E70000001002406E
:101590000024F4006C7900082DE9F84304006ED0B3
:1015A000FD4DA86800F00C06E86800F003072078FD
:1015B000C00663D576B10C2E01D1012F0AD0A069E7
:1015C0000028286878D040F001002860FFF734FC3C
:1015D00080465BE02868800702D5A0690028DED03D
:1015E000216A2868000703D5286800F0F00004E0AD
:1015F000D5F89400F02202EA1010814216D908466C
:1016000001F0B0FC00283AD1286840F008002860BA
:101610002868216A20F0F000084328606868E169C2
:1016200020F47F4040EA0120686015E0286840F01F
:10163000080028602868216A20F0F000084328602C
:101640006868E16920F47F4040EA01206860206A10
:1016500001F088FC0028D6D1FFF74CFFA968CF4ADB
:10166000C1F30311515C01F01F01C840CC4908606F
:10167000CC480068FFF7FEFB00287DD12DE0C9E0D3
:10168000FFF7DAFBA0EB0800022876D8286880076D
:10169000F6D5286840F0080028602868216A20F004
:1016A000F000084328606868E16920F47F4040EA60
:1016B0000120686011E0FFE720F001002860FFF7DB
:1016C000BBFB804606E000BFFFF7B6FBA0EB0800BF
:1016D0000228DAD828688007F6D42078C00740D0DE
:1016E000082E18D00C2E01D1032F14D06068B0F54D
:1016F000803F17D0B0F5A02F286817D020F4803095
:101700002860286820F4802028606068E0B1FFF736
:1017100093FB804614E02868800322D56068002887
:1017200078D01EE0286840F48030EDE740F4802057
:101730002860F7E7FFF780FBA0EB08006428A4D837
:1017400028688003F6D50CE0FFF776FB804605E0BD
:10175000FFF772FBA0EB0800642896D82868800386
:10176000F6D4207880073BD5042E11D00C2E01D161
:10177000022F0DD0E06801E03EE19FE000282868DC
:101780001ED040F480702860FFF756FB07460CE03F
:10179000286840050CD5E0680028C1D008E000BFEB
:1017A000FFF74AFBC01B022893D828684005F7D5ED
:1017B0006868217C20F0F85040EA016068600FE022
:1017C00020F480702860FFF737FB074605E000BF74
:1017D000FFF732FBC01B022870D828684005F7D4F9
:1017E0002078000729D560690028D5F8940012D028
:1017F00040F00100C5F89400FFF71EFB074604E027
:10180000FFF71AFBC01B022858D8D5F894008007B0
:10181000F6D512E029E120F00100C5F89400FFF7A9
:101820000BFB074605E000BFFFF706FBC01B0228C5
:1018300044D8D5F894008007F6D42078400768D5BE
:10184000A86D0027C00008D4A86D40F08050A8659E
:10185000A86D012700F08050009053480168C90529
:1018600012D40168814641F480710160FFF7E4FA07
:10187000804605E0FFF7E0FAA0EB080002281DD83B
:10188000D9F80000C005F5D5A068012817D00528B3
:10189000D5F8900018D020F00100C5F89000D5F8D8
:1018A000900020F0040000BFC5F89000A06841F24D
:1018B0008839D0B1FFF7C0FA804611E06BE0D5F867
:1018C000900040F00100EFE740F00400C5F8900000
:1018D000F5E700BFFFF7B0FAA0EB080149455AD879
:1018E000D5F890008007F5D50EE0FFF7A5FA804601
:1018F00006E000BFFFF7A0FAA0EB080149457AD83F
:10190000D5F890008007F5D41FB1A86D20F0805065
:10191000A865A06AF0B30C2E75D00228286820F0C4
:101920008070286004D0286810F0205F51D054E007
:10193000FFF782FA064604E0FFF77EFA801B0228D2
:1019400059D828688001F7D4D4E90B016FF00F0251
:1019500002EB01110843A18F5204490802EB4151E7
:10196000626B41EA0221084394F840104FF07E4236
:10197000490802EB41610843A16B090940EA414073
:10198000E9680A4A11400843E860286840F080701E
:1019900028600DE06BE02EE0001002405C7900084A
:1019A000E4000020D8000020007000408C809DF9E9
:1019B000E86840F08070E860FFF73EFA044604E013
:1019C000FFF73AFA001B022815D828688001F7D5DE
:1019D0004DE0E86820F00300E860E8682549084029
:1019E000E860FFF729FA044609E000BFFFF724FA90
:1019F000001B022803D90320BDE8F88303E0286810
:101A00008001F3D433E00128F6D0E868E26A00F000
:101A10000301914229D1216B00F0700209011039B4
:101A2000914222D1626B00F4FE41B1EB022F1CD136
:101A3000A26B00F40031072A01D0012200E000224D
:101A4000914212D1A18F00F4C00249084905A1F5C5
:101A50000011914209D194F8401000F0C06049088B
:101A60004906A1F10071814201D00120C4E70020A4
:101A7000C2E70000FFFFEEFE10B5401EB0F1807F10
:101A800001D3012010BD4FF0E02460610F216017E9
:101A900002F0D4FF0020A06107202061002010BDCB
:101AA000704770477047000070B590F83C20012ADD
:101AB00024D0012480F83C40022280F83D200268B6
:101AC000536895680E4EB24202D00E4EB24203D118
:101AD00023F470064B68334323F070060B68896863
:101AE000334325F08005294353600268916080F8F4
:101AF0003D40002180F83C10084670BD022070BDBA
:101B0000002C01400034014010B5040003D094F8CB
:101B10003D0010B107E0012010BD002084F83C001A
:101B2000204600F00DF8022084F83D00211D2068B9
:101B300001F006FB012084F83D00002010BD0000EC
:101B400008B501681448B1F1804F14D0134A91428E
:101B500020D1816D41F004018165806D002200F08B
:101B60000400009011461E20FFF7CAF91E20BDE8B0
:101B70000840FFF7B7B9816D41F001018165806DC3
:101B8000002200F00100009001211C20FFF7B8F9AD
:101B90001C20ECE708BD00000010024000080040D7
:101BA0000168CA6842F00102CA6001688868064A92
:101BB0001040062806D0B0F5803F03D0086840F0FA
:101BC00001000860002070470700010070B504465E
:101BD00090F83C00012817D0012584F83C500220E1
:101BE00084F83D00226890682E4B184020F47F4016
:101BF00090600868502830D00DDC20284DD005DCDE
:101C000098B310283BD148E0022070BD302844D062
:101C1000402834D139E0602828D0702806D0B0F5AB
:101C2000805F2CD0B0F5005F29D10AE0CB68D1E904
:101C30000121206801F0F1FA2068816841F0770104
:101C400009E0CB68D1E90121206801F0E6FA2068BB
:101C5000816841F48041816011E0CA684968206868
:101C600001F076FC5021206807E016E0CA68496858
:101C7000206801F07EFC6021206801F0D8FA84F829
:101C80003D50002084F83C0070BDCA684968206857
:101C900001F05EFC40212068EFE722680146104613
:101CA000EBE7000088FFFEFF704770B50446006850
:101CB00001694FF00005C943890715D4C168C943BC
:101CC000890711D4E91E016101202077206880690D
:101CD0008007204602D0FFF7E7FF04E000F0D0F8CD
:101CE000204600F091F9257720680169C94349072A
:101CF00017D4C168C943490713D46FF004010161C7
:101D0000022020772068806910F4407F204602D0AE
:101D1000FFF7CAFF04E000F0B3F8204600F074F9C2
:101D2000257720680169C943090716D4C168C943EA
:101D3000090712D46FF008010161042020772068A0
:101D4000C0698007204602D0FFF7AEFF04E000F034
:101D500097F8204600F058F9257720680169C943B3
:101D6000C90617D4C168C943C90613D46FF010015E
:101D70000161082020772068C06910F4407F204668
:101D800002D0FFF791FF04E000F07AF8204600F05F
:101D90003BF9257720680169C943C90708D1C168A3
:101DA000C943C90704D1891E0161204600F064F9C6
:101DB00020680169C943090609D4C168C9430906F5
:101DC00005D46FF0800101612046FFF76AFE2068AC
:101DD0000169C943C90509D4C168C943090605D4C5
:101DE0006FF4807101612046FFF75AFE2068016997
:101DF000C943490609D4C168C943490605D46FF0EF
:101E000040010161204600F045FA20680169C9439C
:101E100089060BD4C168C943890607D46FF0200135
:101E200001612046BDE87040FFF73CBE70BD000078
:101E300010B586B0044614216846FEF70EFA0D4927
:101E40002068884214D10C48C16C41F00401C1647F
:101E5000C06C002100F0040005908020009002205A
:101E6000CDE90101CDE9031069460448FEF7FAFE09
:101E700006B010BD000400400010024000080048F9
:101E8000704770B5044690F83C000D4601280ED00E
:101E9000012684F83C60022084F83D000C2A45D0DD
:101EA00007DC5AB1042A1BD0082A78D12CE0022082
:101EB00070BD102A4ED0142A71D15DE0206801F067
:101EC000BFF92068816941F008018161206881695A
:101ED00021F004018161206881692A69114311E0C0
:101EE000206801F0FBF92068816941F4006181619B
:101EF0002068816921F480618161206881692A6993
:101F000041EA022181614AE0206801F02FFA20684D
:101F1000C16941F00801C1612068C16921F0040173
:101F2000C1612068C1692A69114311E0206801F08C
:101F300065FA2068C16941F40061C1612068C16926
:101F400021F48061C1612068C1692A6941EA0221E6
:101F5000C16124E0206801F08BFA2068416D41F0F6
:101F6000080141652068416D21F004014165206848
:101F7000416D2A69114311E0206801F0B1FA20682F
:101F8000416D41F4006141652068416D21F480613B
:101F900041652068416D2A6941EA0221416584F862
:101FA0003D60002084F83C0070BD10B5040003D0F3
:101FB00094F83D0010B107E0012010BD002084F826
:101FC0003C00204600F00CF8022084F83D00211D62
:101FD000206801F0B5F8012084F83D00002010BD14
:101FE00008B500680649884208D10648816D41F06D
:101FF00002018165806D00F00200009008BD0000C4
:1020000000040040001002407047000010B5044674
:102010000068012201F0F4F81148216881420BD0D8
:102020001048814208D01048814205D00F488142B3
:1020300002D00F48814203D1486C40F4004048640C
:10204000206881680B4A1140062906D0B1F5803F0F
:1020500003D0016841F001010160002010BD0000C3
:10206000002C014000340140004001400044014088
:1020700000480140070001002DE9F0435A49C3B070
:1020800088427CD1594DA86820B90122D102584814
:10209000FEF7CDFEA868002801DD401EA860E868B4
:1020A0004FF49678012600274FF4C879404576DA38
:1020B000002802DD401EE86071E04E494EA0C5F8E0
:1020C0000C9002F07FFC55A14A4802F079FC0028F0
:1020D00063D0684604F052FF0A224649684605F07C
:1020E0007BFA002204464DA1379205F0C7FB3690DB
:1020F00037A936A805F015FC00284DD047A0CDE93A
:10210000394039A8296A05F0AFFB002844D044A023
:10211000CDE93B4000213BA805F0A6FB00283AD0C2
:102120003FA0CDE9364038A9389636A805F031FBF6
:102130003C4900204A460F54401C9042FBDB394981
:10214000204605F0DEFB3748FEF7BAF882B20A23D4
:102150003449354800F0FCFA34A0CDE93D403DA8B3
:1021600005F0E7FB686132A0CDE93F403FA805F0EC
:10217000E0FBA86130A0CDE9414041A800E015E0B6
:1021800005F0D7FBE861D5E9051203462CA002F063
:1021900019FC6E7000E02E700397C5F80C8028695A
:1021A000404503DA002804DD401E286143B0BDE845
:1021B000F0834C462C492DA0C5F8109002F002FC8B
:1021C00029487B21FEF772F80100EFD0287900281A
:1021D000ECD12F4801228754521CA242FBDB2C4831
:1021E000FEF783F82E71E1E7B4060020000000201E
:1021F00000040048140A00205B494E464F5D72659A
:102200006365697665206D73672066726F6D206304
:10221000616D3A0D0A25730D0A0000006964000023
:1022200061636B00A40D0020240C00207265640023
:10223000677265656E00000063686F707300000070
:102240005B494E464F5D5B43414D5D5265643A25A7
:102250006420477265656E3A25642043686F707329
:102260003A25640D0A000000840800205B494E46B0
:102270004F5D72656365697665206D736720667270
:102280006F6D20776966693A0D0A25730D0A0000A3
:102290005801002070477047704700002DE9F04159
:1022A00002680446D0691168936810F00F0F4FF070
:1022B00000055BD003F0010601F49077374369D045
:1022C000C70707D0CF0505D501271762E26F42F097
:1022D0000102E267820708D5DA0706D027680222E2
:1022E0003A62E26F42F00402E267420708D5DA0779
:1022F00006D0236804221A62E26F42F00202E2670B
:1023000002070AD501F02002324306D023680822D2
:102310001A62E26F42F00802E267E26F002A32D0EE
:10232000800605D5880603D5216E09B12046884769
:10233000E06F21688968490601D4000725D5204649
:1023400001F0CAF920688168490619D5816821F031
:1023500040018160E06E98B120498163E06EFEF734
:1023600033FC00280FD0E06E816B06E0860611D5A5
:102370008E060FD5216E1EE02046BDE8F0410847CD
:102380002046FFF789FFBDE8F0812046FFF784FF74
:10239000E567F8E7C60209D55B0207D54FF4801060
:1023A00010622046BDE8F041FFF775BF030605D572
:1023B0000B0603D5616E0029DED1E4E74006E2D5C5
:1023C0004806E0D51168204621F040011160202127
:1023D0006167656600F048FAD5E70000C536000879
:1023E00010B5040002D0606F10B107E0012010BDED
:1023F000002084F87000204600F026F82420606752
:102400002068016821F001010160204601F0CEF949
:102410000128ECD0606A10B1204601F0C3F82068B2
:10242000416821F4904141602068816821F02A01CF
:1024300081602068016841F0010101602046BDE82B
:10244000104001F013B90000F0B587B00446142124
:102450006846FDF702FF4F48256800224E490223D7
:1024600003244E4E854221D1886D40F400208865BA
:10247000886D00F400200590C86C40F00400C8642A
:10248000C86C029200F004000590A002CDE90003A0
:102490000820CDE9034069463046FEF7E3FB002201
:1024A00011463420FEF72CFD342026E0DFF8F0C082
:1024B00007274FF09040654523D10D6E45F48045C8
:1024C0000D660D6E05F480450595CD6C45F0010552
:1024D000CD64C96C02AD01F0010105914FF4C061FA
:1024E000CDE9001385E894006946FEF7BBFB0022A6
:1024F00011462520FEF704FD2520FEF7F3FC07B06A
:10250000F0BDDFF8A0C065451FD18D6D45F40035E5
:102510008D658D6D05F400350595CD6C45F0010593
:10252000CD64C96C02AD01F0010105910C21CDE92A
:10253000001385E894006946FEF794FB00221146DB
:102540002620FEF7DDFC2620D7E717488542D6D1A6
:10255000886D40F480208865886D00F480200590A7
:10256000C86C40F00400C864C86C02AD00F0040000
:1025700005903020CDE9000385E894006946304697
:10258000FEF770FB002211462720FEF7B9FC27203A
:10259000B3E70000004C0040001002400008004873
:1025A00000380140004400400048004030B5836FCF
:1025B000202B4BD1B1B1AAB190F87030012B45D08E
:1025C000012380F870304165A0F85820A0F85A2007
:1025D000002101661D038268FF23AA4207D1026918
:1025E00012B125E0012030BD40F2FF1226E07F2429
:1025F000E2B1B2F1805F1ED0A0F85C10C167222268
:1026000082670268936843F0010393608268AA427C
:1026100001D10269C2B10E4A026680F870100068EA
:10262000016841F490710160002030BD026942B937
:10263000A0F85C30E2E702691AB13F22A0F85C2002
:10264000DCE7A0F85C40D9E7024AE5E7022030BDAC
:1026500051370008F73600082DE9F04706463448A0
:102660000025344C4FF496794FF0C8084FF4C877E2
:1026700086421CD1304A1068484557DC2F49C8288B
:1026800005DD00200D54401CB842FBDB656060682E
:10269000E3780B54401C6060B84200DB656025495C
:1026A000C2F800800122C91C2148FFF77FFF2048A3
:1026B000803886420FD1224890F837102A3019B955
:1026C0001C49491C00F0C8FC1A4919480122491C40
:1026D0008038FFF76BFF1B48864227D11A4A1B49F7
:1026E000106848450FDDE068A2780A54401CE0609D
:1026F000B84200DBE560BDE8F0470E490122891CC5
:102700001048FFF753BFC82805DD00200D54401CBA
:10271000B842FBDBE560E068A3780B54401CE06046
:10272000B84200DBE560C2F80080E4E7BDE8F0876E
:10273000240C0020A00000200C000020140A00201F
:10274000453A0020240D00201000002084080020BD
:102750002DE9F8430446406F1F4616460D462028D3
:102760004ED1CDB1C6B194F87000012848D00120F7
:1027700084F870004FF00008C4F87C802120606766
:10278000FEF75AFBA4F850608146A4F85260A06896
:10279000B0F5805F03D004E00120BDE8F883206934
:1027A00010B12E46002510E000260EE080212046C4
:1027B00001F08AF9B8B9C6B116F8010B216808858D
:1027C000B4F85200401EA4F85200B4F852004B4630
:1027D0004FF0000200970028E8D14FF0400120465A
:1027E00001F072F930B10320D7E735F8020BC0F3DE
:1027F0000800E3E72020606784F870800020CCE7C1
:102800000220CAE7436F202B28D1B1B1AAB190F8BA
:102810007030012B22D0012380F87030C164A0F801
:102820005020A0F8522000214166C1672122426752
:102830008268B2F5805F02D003E001207047026930
:1028400052B1074A426680F870100068016841F092
:102850008001016000207047024AF3E702207047C0
:102860008D3A00084D3A000810B5044610488442DD
:102870000BD11048007B40B90F490E4800F0BDFB5A
:1028800001220D490A48FFF7BDFF0C4884420DD1D3
:10289000094CA1682069884208DA094901220144EB
:1028A0000648FFF7AFFF2069401C206110BD000003
:1028B000A40B0020453A0020A0000020240D002099
:1028C000F4060020FEE700002DE9F04387B0142154
:1028D0006846FDF7C2FC3A48C16C41F08001C16412
:1028E000C16C01F080010591C16C41F00401C1642B
:1028F000C16C01F004010591C16C41F00101C1649A
:10290000C16C01F001010591C16C41F00201C1648B
:10291000C06CDFF8B09000F002004FF40067059043
:10292000002239464846FEF782FA0126264800244E
:102930000096CDE90104DFF8948069464046FEF731
:1029400091F9CDE9007469464FF090400294FEF78A
:1029500089F9CDE90076022569464846CDE9024568
:10296000FEF780F9CDE9005669464046CDE90245BB
:10297000FEF778F9002202214046FEF758FA0122BC
:1029800039464846FEF753FACDE90056CDE90254E0
:1029900069464046FEF766F9CDE90254CDE9007676
:1029A00069464846FEF75EF9002211460620FEF70A
:1029B000A7FA0620FEF796FA07B0BDE8F0830000FC
:1029C00000100240000400480000311000080048D8
:1029D00010B58AB00024079408941C216846099415
:1029E000FDF73BFC1748164901602721C0E9011497
:1029F00040F2E731C0E903148461FFF7D6FA08B169
:102A0000FEF7E1F8079407A90E480994FFF74CF880
:102A100008B1FEF7D8F8602000904FF4FA70CDE9C5
:102A200001040422694607480494FFF72AFA08B112
:102A3000FEF7C9F80348FFF7FBF90AB010BD000024
:102A4000000400407406002010B588B00024184827
:102A500000940194029403940494059413490694F9
:102A6000016041F63F714160102181606421C0E93D
:102A700003148461FFF748F808B1FEF7A4F84FF497
:102A80008050009069460A48FFF7A0F808B1FEF7A9
:102A90009AF8049404A906480694FFF705F800285C
:102AA00001D0FEF790F808B010BD0000000800400B
:102AB000B40600200D4810B50B4901604FF4E13118
:102AC0004160002181600C22C160C0E90412816173
:102AD000C16101624162FFF783FC002803D0BDE8B9
:102AE0001040FEF770B810BD004C0040A40B002051
:102AF0000D4810B50B4901604FF4E13141600021F0
:102B000081600C22C160C0E904128161C16101626F
:102B10004162FFF765FC002803D0BDE81040FEF7D6
:102B200052B810BD00380140240C00200D4810B5EB
:102B30000B4901604FF4E1314160002181600C22BA
:102B4000C160C0E904128161C16101624162FFF7A5
:102B500047FC002803D0BDE81040FEF734B810BD94
:102B600000440040A40C00200D4810B50B49016042
:102B70004FF4E1314160002181600C22C160C0E965
:102B800004128161C16101624162FFF729FC0028E2
:102B900003D0BDE81040FEF716B810BD0048004055
:102BA000240D00202DE9FE4F8146DDE90CA51E46CF
:102BB00017468846684603F085FF042003F07AFF35
:102BC00001460122684603F083FF040017D1324614
:102BD0003946684603F000FF040010D142464946DA
:102BE000684603F057FF040009D15146684603F0D8
:102BF000BFFE040003D15046FDF762FB2860684623
:102C000003F09BFE204600F000B81EBCBDE8E08F3C
:102C1000FEE701F01DB970B500F2852200F2011443
:102C2000107B0D4608B1012070BD2146104600F012
:102C3000E4F9E0782870207900F0010068702079CC
:102C4000C0F34000A870A078801E10F0FF02EA7068
:102C500003D0611D281DFDF7E7FA002070BD70B597
:102C600000F25B2500F15404687B08B1022070BDBE
:102C7000C8780223801CA0700878E07000202071C2
:102C8000487800F0010020718A7803EA420210437C
:102C90002071CA781AB1601D091DFDF7C5FA2146D9
:102CA000284600F0D9F9002070BD70477047000039
:102CB00010B501231C0322460D490E4800F0FBF914
:102CC0000C48012322460C492A3000F0F4F90B4944
:102CD000AD23082201F62B5000F0EDF90849AD2391
:102CE000BDE81040082201F2ED7000F0E4B90000E8
:102CF000750F0020453A0020751F0020752F002019
:102D0000DD34002000B5ABB00748FFF782FF06486E
:102D1000D0F80E0010B10548FFF7A6FD694602483D
:102D2000FFF779FF2BB000BD453A0020A40B00202F
:102D30002DE9F041444C05468846E06800268107AD
:102D400028680DD0E16801F00301814216D1A8B1D5
:102D5000E0686968C0F30210401C88420ED120E090
:102D6000012804D0022805D0032807D108E02168F3
:102D7000890701E021684905002907DB01265FE09A
:102D80002168890302D421684903F5E7E1686A688C
:102D90006FF00F0321F0730103EB021211430143A3
:102DA000E160206820F080602060FEF745F807466B
:102DB00005E000BFFEF740F8C01B022837D82068A6
:102DC0000001F7D4B8F1000F18D0B8F1010F1ED0F0
:102DD000287D4FF07E41400801EB4060A96840EA41
:102DE00001202169194A114008432061206840F000
:102DF00080602060FEF720F807461AE0A868E968BE
:102E00000002090940EA41402169114AEBE7288A9A
:102E10001049400801EB4050A96840EA01202169AF
:102E20000D4AE0E7FEF708F8C01B022801D9032687
:102E300006E020680001F5D52069A96908432061F2
:102E40003046BDE8F081000000100240FF80FFF92D
:102E5000FF80FDFF0000E0FFFF809FFF2DE9F041B4
:102E60003D4C06468846E0680025810730680DD055
:102E7000E16801F00301814216D1A8B1E0687168F0
:102E8000C0F30210401C88420ED120E0012804D07B
:102E9000022805D0032807D108E02168890701E04E
:102EA00021684905002907DB012551E021688903D4
:102EB00002D421684903F5E7E16872686FF00F03F7
:102EC00021F0730103EB021211430143E16020681A
:102ED00020F080502060FDF7AFFF074605E000BFFF
:102EE000FDF7AAFFC01B022829D820688000F7D46C
:102EF000B8F1000F15D0307C4FF07E41400801EB57
:102F00004060B16840EA01206169144A11400843F9
:102F10006061206840F080502060FDF78DFF07461B
:102F20000FE0B068F1680002090940EA41406169B8
:102F30000B4AEBE7FDF780FFC01B022801D90325F0
:102F400006E020688000F5D560697169084360611A
:102F50002846BDE8F081000000100240FF80FFF924
:102F6000FF80FDFFF8B51C4D06460024A86DC0008B
:102F700002D5FEF72BF80DE0A86D40F08050A86553
:102F8000A86D00F080500090FEF720F8A96D21F0A8
:102F90008051A965B0F5007F04D0802E07D94FF08D
:102FA00003040AE0802E08D9A02E01D804E001D144
:102FB000022402E0702E00D101240848016821F0AB
:102FC000070121430160006800F00700A04201D022
:102FD0000120F8BD0020F8BD001002400020024092
:102FE000D0F8122011444268B1FBF2F302FB131136
:102FF0000268806801FB0020704710B50B00044692
:1030000008D02068D4F81210A26801FB020118460B
:10301000FDF70AF9D4F812006168401CB0FBF1F228
:1030200001FB1200C4F81200D4F81A00D4F81E10E4
:10303000A41D401C41F100016061A16172B654F809
:10304000080F401E206054F80E0908B901202073B3
:103050000020607362B610BD10B5044639B1206817
:10306000D4F81630A26803FB0200FDF7DDF8D4F8AF
:1030700016106068491CB1FBF0F200FB1211C4F895
:103080001610D4F82210D4F82620A41D491C42F1B1
:103090000002E161226272B654F8081F491C2160E7
:1030A000002104F8021C54F80E19814201D10120BC
:1030B000607362B610BD40F8021B0121C0F8022007
:1030C000C0F8063081720021C172C16001614161A6
:1030D00001228261C1610262416270477047FDF75F
:1030E000B1BE00000D48016841F4700101600C4858
:1030F000016841F001010160002181600268094B13
:103100001A4002608214C260026822F480220260C7
:1031100081610249C00380390860704788ED00E092
:1031200000100240FFFFF6EA0148FEF7BEBD0000B6
:10313000340600200148FEF7B8BD0000B4060020A8
:103140002DE9F0470268264B264D274E274F284C85
:103150004FF0804A984209D0504507D0A84205D088
:10316000B04203D0B84201D0A04204D122F0700C8A
:103170004A6842EA0C02DFF87CC0DFF87C80DFF8A6
:103180007C9098420FD050450DD0A8420BD0B04251
:1031900009D0B84207D0A04205D0604503D04045D1
:1031A00001D0484503D122F44075CA682A434D69CD
:1031B00022F080022A4302608A68C2620A68826240
:1031C000984207D0A04205D0604503D0404501D0C9
:1031D000484501D10969016301214161BDE8F087DA
:1031E000002C01400004004000080040000C00409A
:1031F00000340140004001400044014000480140CB
:1032000010B501F01F030121046A99408C43046248
:10321000016A9A401143016210BD10B5846842EA08
:10322000032224F47F440A432243826010BD826853
:1032300022F070020A4342F00701816070470000EB
:103240002DE9F043026A22F001020262056A436836
:1032500082691C4C25F0020522400C6822F0030212
:1032600014438A68194E2A43174D194FDFF864C07A
:10327000DFF86490A84207D0B04205D0B84203D02E
:10328000604501D0484506D122F00808CA6842EAE4
:10329000080222F00402A84207D0B04205D0B8428A
:1032A00003D0604501D0484505D14D6923F44073F2
:1032B0001D438B692B43436084614968416302620B
:1032C000BDE8F0838FFFFEFF002C01400034014079
:1032D000004001400044014000480140F0B5026A4E
:1032E00022F010020262056A42688369194C1B4E83
:1032F00023400C6823F4407343EA042425F02003A0
:103300008D6843EA0513144DA84201D0B04206D19E
:10331000CF6823F0800343EA071323F04003A84259
:103320000AD0B04208D00E4DA84205D00D4DA8429B
:1033300002D00D4DA84207D14D6922F4406242EA05
:1033400085028D6942EA8502426084614968816331
:103350000362F0BDFF8FFFFE002C014000340140EE
:10336000004001400044014000480140F0B5026ABD
:1033700022F480720262056A4368C269194C1B4ECE
:1033800022400C6822F00302144325F400728D6879
:1033900042EA0522144DA84201D0B04206D1CF68BE
:1033A00022F4006242EA072222F48062A8420AD094
:1033B000B04208D00E4DA84205D00E4DA84202D012
:1033C0000D4DA84207D14D6923F4405343EA05133C
:1033D0008D6943EA05134360C4614968C1630262B1
:1033E000F0BD00008FFFFEFF002C014000340140C3
:1033F00000400140004401400048014030B5026AED
:1034000022F480520262046A4268C369124D24F4B5
:1034100000542B400D6823F4407343EA05238D6864
:1034200044EA05340D4DA8420BD00D4DA84208D0FA
:103430000C4DA84205D00C4DA84202D00B4DA8421D
:1034400004D14D6922F4804242EA85124260C36190
:1034500049680164046230BDFF8FFFFE002C01400B
:103460000034014000400140004401400048014058
:1034700030B5026A22F480320262046A4268436D07
:10348000114D2B400D681D4324F400330C8943EA91
:1034900004430E4CA0420BD00D4CA04208D00D4C62
:1034A000A04205D00C4CA04202D00C4CA04204D14A
:1034B0004C6922F4803242EA042242604565496840
:1034C0008165036230BD00008FFFFEFF002C0140CC
:1034D00000340140004001400044014000480140E8
:1034E00030B5026A22F480120262046A4268436DB7
:1034F000114D24F400142B400D6843EA05230D8977
:1035000044EA05540D4DA8420BD00D4DA84208D0F9
:103510000C4DA84205D00C4DA84202D00B4DA8423C
:1035200004D14D6922F4802242EA8522426043653B
:103530004968C165046230BDFF8FFFFE002C014069
:103540000034014000400140004401400048014077
:1035500010B5036A046A24F001040462846924F04B
:10356000F00444EA021423F00A020A43846102626E
:1035700010BD10B5036A23F0100303628369046A67
:1035800023F4704343EA023224F0A00343EA01111A
:103590008261016210BD00000148FEF77FBE00009D
:1035A000A40B002090F82410C90706D001684A68CF
:1035B000836A22F400321A434A6090F82410890783
:1035C00006D501684A68C36A22F480321A434A6009
:1035D00090F82410490706D501684A68036B22F465
:1035E00080221A434A6090F82410090706D5016822
:1035F0004A68436B22F400421A434A6090F8241050
:10360000C90606D501688A68836B22F480521A4382
:103610008A6090F82410890606D501688A68C36B11
:1036200022F400521A438A6090F82410490611D5FA
:1036300001684A68036C22F480121A434A60016CE4
:10364000B1F5801F06D101684A68436C22F4C002BC
:103650001A434A6090F82410090606D501684A68A2
:10366000806C22F4002202434A607047F8B50026BD
:103670000446C667FDF7E0FB0546206800686FF06A
:103680007E47000708D52B4600224FF40011204644
:10369000009700F019FA60B92068006840070AD561
:1036A0002B4600224FF480012046009700F00CFAD0
:1036B00008B10320F8BD20206067A06784F870601F
:1036C0000020F8BD10B5806A0021A0F85A10A0F8BB
:1036D0005210FEF7E1FD10BD01680A6822F49072F5
:1036E0000A6001688A6822F001028A6020218167ED
:1036F00000210166704710B5B0F85C20836F016847
:10370000222B04D0088B40F00800088310BD898C60
:10371000436D11401980416D891C4165B0F85A1004
:10372000491EA0F85A10B0F85A100029EED10168CD
:103730000A6822F490720A6001688A6822F0010225
:103740008A602021816700210166FEF785FF10BD98
:1037500010B5B0F85C20836F0168222B04D0088B71
:1037600040F00800088310BD898C1140426D117033
:10377000416D491C4165B0F85A10491EA0F85A1015
:10378000B0F85A100029EED101680A6822F490724C
:103790000A6001688A6822F001028A60202181673C
:1037A00000210166FEF758FF10BD00002DE9F04131
:1037B0000546016880682B69EC6918436B6900272E
:1037C00023431843954A0B68954C234003430B60F1
:1037D00028684168EB6821F4405119434160296829
:1037E000A869914201D02B6A18438B6823F4306397
:1037F00003438B608B4B29688B4899420DD1D0F8DD
:10380000880010F0030006D0012868D0022864D098
:10381000032851D165E001244FE0844B99420BD13C
:10382000D0F8880010F00C0055D0042857D0082894
:1038300053D00C2840D154E07D4B99420BD1D0F8A5
:10384000880010F0300046D0102848D0202844D0FE
:10385000302831D145E0774B99420BD1D0F8880020
:1038600010F0C00037D0402839D0802835D0C0288B
:1038700022D136E0704B99420ED1D0F8880010F476
:10388000407028D0B0F5807F29D0B0F5007F24D0DB
:10389000B0F5407F10D124E091420DD1D0F88800DE
:1038A00010F4406017D0B0F5806F18D0B0F5006FFD
:1038B00013D0B0F5406F14D01024604B00264FF4A5
:1038C0000040914245D174B1022C0FD0042C0FD08E
:1038D000082C18D10FE00024EFE70224EDE70424C0
:1038E000EBE70824E9E7FDF7E1FD03E0184602E015
:1038F000FDF700FEA8B36A6802EB4201814202D8DC
:10390000B0EB023F01D9012775E0DFF834815CB1EB
:10391000022C0CD0042C13D0082CF4D15008210513
:10392000401846F1000105E0FDF7C0FD0AE050082F
:103930004449F5E70023FCF743FCA0F5407156E04D
:10394000FDF7D8FD6A68010E03025008181871418E
:10395000F0E7E9694FF6EF7881422FD1092CD2D2F6
:1039600000E048E0DFE804F006092005230505052E
:103970002600C8E7FDF79AFD01E0FDF7A9FD41002B
:10398000D5F8040001EB5001B1FBF0F080B2A0F1DA
:1039900010014145B7D84FF6F0710140C0F3420025
:1039A00001432868C16026E027496868EAE7FDF717
:1039B000A1FDE4E74FF480316868E3E7092CA2D267
:1039C000DFE804F006091E052205050525009AE733
:1039D000FDF76CFD01E0FDF77BFD0146686801EB3A
:1039E000500100BFB1FBF0F080B2A0F110014145E1
:1039F00089D82968C8602E6638466E66BDE8F081B1
:103A0000686803EB5001EDE7FDF774FDE5E76968D1
:103A100000EB5100B0FBF1F0E6E700000080004051
:103A2000F369FFEF003801400010024000440040FD
:103A300000480040004C0040005000400024F400CA
:103A4000FFFC0F00000024F40048E801416F212929
:103A500010D1B0F8521071B1C16C02680988C1F37D
:103A600008011185C16C891CC164B0F85210491E4F
:103A7000A0F85210704701680A6822F080020A60BC
:103A80000068016841F0400101607047416F2129E1
:103A90000ED1B0F8521061B1C16C0268097811857D
:103AA000C16C491CC164B0F85210491EA0F85210F4
:103AB000704701680A6822F080020A6000680168A5
:103AC00041F04001016070472DE9F04198461746EA
:103AD0000E460446069D08E0681C06D0FDF7ACF9CA
:103AE000A0EB0800A8420BD855B12068C06936EA9F
:103AF000000017D00020B842EED00020BDE8F081D1
:103B00002068016821F4D07101602068816821F08B
:103B10000101816020206067A067002084F87000A8
:103B20000320EBE70120E6E70148FEF7B7BB000002
:103B3000240C00200148FEF7B1BB0000A40C0020BB
:103B40000148FEF7ABBB0000240D0020FEE700009B
:103B5000224810B52049016041608160C160204A5F
:103B6000026142618261204BC2611E481860586048
:103B70009B1E00245C7001241C70184B20331960BC
:103B8000596019499A60DA600831174A086048603C
:103B900003F11000154900F8014B921E0160144911
:103BA0004160144981601449C1600020C2E90600E7
:103BB000FFF77EF80C4A094816320121203000F048
:103BC000F7FB094A01211632A2F10E0000F074FB46
:103BD000BDE81040FFF796B80000C842340F00203F
:103BE0000000A04200004842BA000020D6F54E4333
:103BF00068D1574246364C4269AF60427FB5FEB04D
:103C00004FF4C87568462A4604A900F0B1FE63491E
:103C10000160684600F064FE61A1CDE969010446D7
:103C200060A169A803F08EFD5FA1CDE96B4160A1A1
:103C30006BA803F087FD5FA1CDE96D415FA16DA881
:103C400003F080FD204664A103F00CF962A1CDE9E8
:103C5000714163A271A975A803F0A5FDDDE97501A5
:103C6000CDE96F017EA96FA803F093FD5AA1CDE9BC
:103C700073415CA273A975A803F095FDDDE9750198
:103C8000CDE977017FA977A803F083FD809800280C
:103C90000FDB51A0CDE9754054A275A979A803F0B6
:103CA00082FDDDE97901CDE97B0180A97BA803F0E4
:103CB00070FD819800280FDB47A0CDE975404EA22A
:103CC00075A979A803F06FFDDDE97901CDE97B01E4
:103CD00081A97BA803F05DFD869800280FDB3EA03C
:103CE000CDE9754047A275A979A803F05CFDDDE92F
:103CF0007901CDE97B0186A97BA803F04AFD87986D
:103D000000280FDB34A0CDE9754041A275A979A840
:103D100003F049FDDDE97901CDE97B0187A97BA8A5
:103D200003F037FD889800280FDB2BA0CDE9754004
:103D30003BA275A979A803F036FDDDE97901CDE94B
:103D40007B0188A97BA803F024FD899800280FDB5C
:103D500021A0CDE9754037A275A979A803F023FD0C
:103D6000DDE97901CDE97B0189A97BA803F011FD8B
:103D70000020354906462A460E54401C9042FBDB83
:103D80003149204603F0BDFD30A12F480396FCF7D2
:103D90006FFA0DF5027D012070BD0000E879000882
:103DA000696400003130300076657273696F6E00AF
:103DB000312E30006D6574686F6400007468696E40
:103DC000672E6576656E742E70726F706572747989
:103DD0002E706F7374000000706172616D7300006B
:103DE0004944000053746174757300005265645354
:103DF0006175636500000000477265656E5361750B
:103E00006365000043686F70737469636B730000CF
:103E1000526564536175636544657465637400003D
:103E2000477265656E536175636544657465637457
:103E30000000000043686F70737469636B734465BE
:103E40007465637400000000E80200200D000000AB
:103E500010B5044600F060F92046BDE8104000F0BF
:103E6000D4B900002DE9F043534DADF5277D4FF453
:103E7000C87964A8C5F8109003F080F80A224F4969
:103E800064A803F0A9FB04464DA103F0F7FCA4903D
:103E90000020A690A6A9A4A803F043FD002698B18F
:103EA000A49F17F8080F012805D1796851B1464839
:103EB000FCF70DFA20B13878022803D0012801D090
:103EC000002102E0796800E031469AA8FCF70DFA7B
:103ED0003EA19AA800F074FD4FF0020850B13DA039
:103EE00000F070FD6879012801D185F8058037A0C0
:103EF00002F040FF3DA19AA800F062FD012730B119
:103F00003CA000F05FFDEF7038A002F033FF3FA14E
:103F10009AA800F055FD30B13DA000F053FDAF7000
:103F20003AA002F027FF40A19AA800F049FD80B115
:103F300041A000F047FD6879042807D10520687189
:103F4000C5F82480C5F82880C5F82C8036A002F07A
:103F500011FF1BA1204602F0B8FF40A1204602F04D
:103F6000B4FF40A1204602F0B0FF40A0CDE9A2403E
:103F7000C820A590A5A9A2A803F00BFC20463DA14E
:103F800002F070FF002069464A460E54401C9042E1
:103F9000FBDB204603F0B5FC38A16846FCF768F966
:103FA000684602F0B7FE67962E714FF4967028614E
:103FB0000DF5277DBDE8F0830000002058010020AA
:103FC0006D6574686F640000287A0008537461722C
:103FD000740000005B494E464F5D5B5345525649A5
:103FE00043455D53746172740D0A0000506175732E
:103FF000650000005B494E464F5D5B534552564994
:1040000043455D50617573650D0A0000456E64009F
:104010005B494E464F5D5B534552564943455D45AE
:104020006E640D0A00000000537570706C69657352
:1040300052656672657368005B494E464F5D5B531F
:104040004552564943455D537570706C69657320E0
:10405000526566726573680D0A00000076657273BA
:10406000696F6E00706172616D730000636F6465EB
:104070000000000064617461000000000D00000099
:1040800031B5ADF5227D64A802F078FF64A800F098
:1040900027FC1BA1CDE99B010446A2A99BA803F024
:1040A00078FB01209A9017A1CDE99D419AA99DA87E
:1040B00003F06FFB002515A19A95CDE99F419AA9C0
:1040C0009FA803F066FB002069464FF4C8720D54A8
:1040D000401C9042FBDB204603F013FC0CA1684619
:1040E000FCF7C6F86846FCF7EBF882B20A2369468B
:1040F0000848FEF72DFB67950DF5237D30BD0000C8
:1041000069640000726561647900000061636B009E
:104110000D000000240C00202DE9F04700F12A05D5
:1041200000F2852900F5D778D5F80E00C4B2062C28
:1041300069D300212846FEF753FF0078AA2804D04F
:1041400000212846FEF759FFEEE701212846FEF739
:1041500047FF0078AA2804D000212846FEF74DFF2B
:10416000EEE702212846FEF73BFF90F800A0BAF1E7
:10417000AA0FE5D20AF10400844244D3AA2CDFD26C
:1041800000273C46C61E07E0E11C2846FEF728FF34
:104190000078641C3844C7B2B442F5D327B100217B
:1041A0002846FEF72AFFD7E741462846FEF725FFB7
:1041B00008F101012846FEF720FF08F10201284618
:1041C000FEF71BFF08F103012846FEF716FF08F172
:1041D00004012846FEF711FF0024AAF1020606E0BA
:1041E00008EB04012846491DFEF707FF641CB44292
:1041F000F6D308F1AC012846FEF7FFFE41464846DB
:10420000FEF72AFF90E7BDE8F0872DE9F04100F2C4
:104210005B26054649E000213046FEF7E1FE0446F4
:104220006868D5F80E10421AA178081D824240D362
:10423000AA2020706070E07822791044C2B2002079
:10424000891E04E02318401C5B791A44D2B28142D3
:10425000F8D8504284F8AC0021462846FEF7FCFE10
:10426000611C2846FEF7F8FEA11C2846FEF7F4FE66
:10427000E11C2846FEF7F0FE211D2846FEF7ECFE65
:10428000002705E0E1192846491DFEF7E5FE7F1CE1
:10429000A078801EB842F5D804F1AC012846FEF79C
:1042A000DBFE00213046FEF7A8FED6F80E000028FF
:1042B000B1D1BDE8F081000030B5ABB00D46044689
:1042C000AC216846FBF7C9FF53208DF800000120A0
:1042D0008DF801008DF8025008228DF80320214648
:1042E00001A8FBF7A1FF69460248FEF7B8FC2BB016
:1042F000012030BD453A002030B5B9B0442122A894
:10430000FBF7ABFF142133A8FBF7A7FF8821684612
:10431000FBF7A3FF01210804CDE9221002200324AA
:104320002C90CDE92D4114212F910721CDE930109A
:10433000329022A8FDF730F90F25CDE9335400243F
:1043400035943694042133A83794FDF71FF80F9461
:104350000E941094684600951194FCF73FFE4FF4BC
:104360000070FCF7FFFD39B030BD000070B5ACB097
:104370000C4605461646AC216846FBF76EFF3F200B
:104380008DF8000001208DF801008DF802600220F8
:104390008DF803008DF804508DF8054069460348F8
:1043A000FEF75DFC2CB0012070BD0000453A0020F6
:1043B00030B5ABB00D460446AC216846FBF74DFF67
:1043C00051208DF8000001208DF801008DF8025079
:1043D00010228DF80320214601A8FBF725FF69462E
:1043E0000248FEF73CFC2BB0012030BD453A0020CE
:1043F00070B502225B495C4C5C4D5D4E0123ACB054
:10440000022802D001281AD03FE057488DF800302A
:10441000CB30CDF801005748CDF805005648CDF80F
:1044200009005148CDF80D108DF811209D30CDF8C0
:1044300012004E48C530CDF81600504817E08DF8F0
:1044400000304F48CDF801004E48CDF805004E48E9
:10445000CDF809004A48CDF80D108DF81120143818
:10446000CDF8120047481A38CDF816004748CDF865
:104470001A00CDF81E108DF82220CDF82340CDF87B
:104480002750CDF82B60CDF82F108DF833309FEDED
:10449000400A434A8DED0D0A9FED3E0A01218DED44
:1044A0000E0A9FED3D0A68468DED0F0A9FED3B0A0F
:1044B0008DED100A00F0F4F9FEF724FC4FF4FA64D5
:1044C0002046FCF7A9FB364A01210DF1110000F04E
:1044D000E7F9FEF717FC2046FCF79EFB0122304B64
:1044E00011461046FFF742FFFEF70CFC2046FCF792
:1044F00093FB2B4A01210DF1220000F0D1F9FEF7C8
:1045000001FC2046FCF788FB254A01210DF1330010
:1045100000F0C6F9FEF7F6FB2046FCF77DFB012212
:104520001F4B00211046FFF721FFFEF7EBFB204653
:10453000FCF772FB1A4A01211A4800F0B1F9FEF7A4
:10454000E1FB2046FCF768FB0021154B01220846E1
:10455000FFF70CFFFEF7D6FB13A000F033FA2CB0E8
:1045600070BD00002A296C423F4629438A6ED24220
:10457000303BE0427F1BCD42B9BC19421E27B041FF
:10458000E5C108438669CF424C772742BC85B541D7
:1045900066D62D438B5D41C352181F43A835324167
:1045A000D0000020640F00205B494E464F5D5B4405
:1045B0004F424F545D4772697020477265656E5374
:1045C0006175636520537563636573730D0A00003D
:1045D00010B50221624A0123ACB0022802D00128A2
:1045E00027D050E08DF800305E48CDF801005E48DD
:1045F000CDF805005D48CDF809005A48CDF80D20EA
:104600008DF811105C30CDF8120057489E30CDF86F
:1046100016005748CDF81A005248CDF81E208DF8E4
:104620002210C130CDF823005248CDF8270052485F
:1046300025E08DF800305148CDF801004B4C504832
:10464000CDF805001B34CDF809404C4CCDF80D20B9
:104650008DF81110A41FCDF81240CDF8160049486E
:10466000CDF81A004548CDF81E208DF822102830CC
:10467000CDF8230042482830CDF827004248CDF835
:104680002B00CDF82F208DF833309FED400A434AA0
:104690008DED0D0A9FED3E0A01218DED0E0A9FED75
:1046A0003D0A68468DED0F0A9FED3B0A8DED100A1D
:1046B00000F0F6F8FEF726FB4FF4FA642046FCF70C
:1046C000ABFA364A01210DF1110000F0E9F8FEF7CE
:1046D00019FB2046FCF7A0FA0122304B1146104688
:1046E000FFF744FEFEF70EFB2046FCF795FA2B4A37
:1046F00001210DF1220000F0D3F8FEF703FB204664
:10470000FCF78AFA254A01210DF1330000F0C8F8C0
:10471000FEF7F8FA2046FCF77FFA01221F4B002132
:104720001046FFF723FEFEF7EDFA2046FCF774FA79
:104730001A4A01211A4800F0B3F8FEF7E3FA2046BE
:10474000FCF76AFA0021154B01220846FFF70EFE1E
:10475000FEF7D8FA13A000F035F92CB010BD000018
:1047600079988042BCDD864340F3E842CEC881425E
:104770003491B14188F4E84218860343D567614318
:104780006666EB421069B5411382084366D62D4335
:104790008B5D41C352181F43A8353241D000002021
:1047A000640F00205B494E464F5D5B444F424F54BF
:1047B0005D4772697020526564536175636520536B
:1047C0007563636573730D0A0000000010B51FA0C8
:1047D00000F0F8F80122D1022648FCF728FB00225D
:1047E00002212548FCF723FB244800210222817086
:1047F000C1708160017142628262C26201224271B3
:1048000001624FF4C871C16001611D48FDF7C8F92C
:1048100004211C48FDF7FAFB01221B491B48FDF748
:10482000C5FE01221A491B48FDF7C0FE01221A49A4
:104830001A48FDF7BBFEFFF78BF900F0BBFB002821
:1048400003D0BDE81040FBF7C5BD10BD0D0A3D3DCE
:104850003D3D3D3D456E6574722064656D6F206120
:1048600070706C69636174696F6E3D3D3D3D3D3DA7
:104870000D0A000000040048000800480000002065
:10488000B406002074060020A1000020A40B002024
:10489000A3000020240C0020A2000020240D0020F2
:1048A00030B5ABB00D460446AC216846FBF7D5FCED
:1048B00054208DF8000001208DF801008DF8025081
:1048C00011228DF80320214601A8FBF7ADFC6946B3
:1048D0000248FEF7C4F92BB0012030BD453A002054
:1048E00010B504460146082000F029F818B100214F
:1048F000C0E9004110BDBDE8104000F001B8000063
:10490000084810B50078C0070AD1064800F0A6F89C
:1049100030B105480021016041600248AFF30080DA
:10492000014810BDF8000020FC0000200A681AB100
:1049300007220270416070470021017070470A0031
:1049400004D011680B6801461046184700207047D4
:10495000C268D21C22F003025318C26081688B42E5
:1049600004D84168C360114408467047002070476E
:10497000034B0360C0E901120021C16070470000D1
:10498000F479000800B10420014908447047000090
:10499000197A0008084810B50078C0070AD10648FF
:1049A00000F05CF830B10548002101604160024828
:1049B000AFF30080014810BD4C01002050010020E1
:1049C000FBF762BC0FB4054B10B503A9044A02986B
:1049D00000F05CF810BC5DF814FB0000F951000811
:1049E000EC0000200FB41CB50246002007AC0029E3
:1049F0000BD0491ECDE90021054B6A462146069899
:104A000000F044F8009A002111701CBC5DF814FB02
:104A1000F54E00080FB4084B10B504A902AA03987C
:104A200000F034F8044602A9002000F06EFA204697
:104A300010BC5DF814FB00000B4F00080907090EBD
:104A4000002804DB00F1E02080F80014704700F03B
:104A50000F0000F1E02080F8141D7047016809B1D3
:104A600000207047012101600846704702E008C835
:104A7000121F08C1002AFAD170477047002001E0D8
:104A800001C1121F002AFBD1704700002DE9FF4F22
:104A90008DB00F460546002606E025280BD0DDE93F
:104AA0000F1290476D1C761C28780028F5D111B0A4
:104AB000304600F0F3B90024A246A1460122EC4999
:104AC00000E0044315F8013F203B02FA03F00842DE
:104AD000F7D128782A2810D06FF02F022878A0F17B
:104AE0003001092914D80AEB8A0102EB410144F094
:104AF000020400EB010A6D1CF0E701CF5FEA000A37
:104B000003D544F40054CAF1000A44F002046D1CB9
:104B100028782E2817D115F8010F44F004042A280C
:104B20000ED06FF02F022878A0F1300109290AD8A1
:104B300009EB890102EB410100EB01096D1CF2E771
:104B400057F8049B6D1C28786C280FD006DC4C2885
:104B500017D068280DD06A2814D104E0742810D02A
:104B60007A280FD10DE044F400140AE044F48014D4
:104B700001E044F440146978814202D104F58014C4
:104B80006D1C6D1C2A786E2A1FD00CDC632A31D074
:104B900004DC002A8BD0582A11D1A3E0642A68D003
:104BA000692A0CD165E0732A2ED004DC6F2A73D0F9
:104BB000702A04D19BE0752A6FD0782A6ED01046F7
:104BC000DDE90F129047761C50E1C4F30250022831
:104BD00006D0032809D0042801CF09D0066045E19A
:104BE00001CFF117C0E9006140E101CF06803DE14E
:104BF00006703BE117F8040B8DF8000000208DF8DB
:104C00000100EB46012003E057F804BB4FF0FF30F2
:104C100061074FF0000102D40DE008F10101884660
:104C200049450FDA8045F8DB1BF808100029F4D15C
:104C300008E008F1010188468142FADB1BF8081000
:104C40000029F6D1DDE90F23AAEB080081462146B1
:104C500000F039F9304400EB080604E0DDE90F12FA
:104C60001BF8010B9047B8F10108F7D221464846DE
:104C7000F7E00A21C4F302534FF0000B0891022B16
:104C800004D001CFC117032B09D00AE0FF1D27F084
:104C90000707F7E8020108E032E01FE020E000B279
:104CA000C117042B01D140B2C117031E71F10003DB
:104CB00007DA4FF0000CD0EB0C006CEB01012D2358
:104CC00002E0230504D52B238DF82430012303E0D3
:104CD000E30701D02023F7E7984658E00A2110E0C7
:104CE00010210EE010204FF0000B08900CE0102176
:104CF0004FF0000B44F004044FF00809089103E062
:104D000008214FF0000B0891C4F30253022B04D08A
:104D100001CF0021032B06D006E0FF1D27F0070777
:104D2000F7E8020103E080B2042B00D1C0B24FF0DB
:104D3000000823072BD5702A07D0DDF820C08CF09F
:104D4000100C5CEA0B0C05D00EE040238DF82430EB
:104D5000012308E050EA010306D030238DF8243007
:104D60008DF8252002239846DDF820C08CF0080C31
:104D70005CEA0B0C0BD150EA010301D1630706D5A5
:104D800030238DF824304FF00108A9F10109582A89
:104D900004D038A20B9208AA0A920BE03AA2F9E7D3
:104DA0005B46089AFBF70CFA0B9B9B5C0A9A521E17
:104DB0000A92137050EA0102F2D10A98ADEB00009A
:104DC00000F1200B600702D524F4803401E04FF09D
:104DD0000109D94502DDA9EB0B0000E0002000EB42
:104DE0000B0141440890AAEB010AE00306D4DDE977
:104DF0000F232146504600F066F806444FF00009A4
:104E000008E009A911F80900DDE90F12904709F13E
:104E10000109761CC145F4DBE0030CD5DDE90F2365
:104E20002146504600F04FF8064404E0DDE90F1239
:104E300030209047761C0899481E08900029F5DC20
:104E400008E00A980A990078491C0A91DDE90F12D6
:104E50009047761CBBF10001ABF1010BF1DC214660
:104E60005046DDE90F2300F01CF806446D1C1BE6DC
:104E70000928010030313233343536373839616230
:104E800063646566000000003031323334353637F4
:104E900038394142434445460000000030BCBDE87B
:104EA000C08F2DE9F041044600251E4617468804B0
:104EB00004D405E039462020B0476D1C641EF9D5A6
:104EC0002846BDE8F0812DE9F041044600251E4644
:104ED0009046C80301D5302700E02027880404D578
:104EE00005E041463846B0476D1C641EF9D528469A
:104EF000BDE8F0814A68002A06D00A68531C0B609E
:104F000010704868401E486070470A68531C0B6068
:104F1000107070472DE9F74FDFF884A0DFF8849018
:104F2000174601264FF4C87BAAF5C8754FF0000854
:104F3000002051465A4644462C540C54401C904282
:104F4000FADB0098FBF7BCF94A460021C2E90204EB
:104F500003E0009B5B5C6B54491C8142F9DB114907
:104F60000122891C1048C9F81040FDF71FFB0E48AC
:104F7000FDF77AFC01240CE04FF47A70FBF74CFE4D
:104F800007480199FBF780F910B1012000F00EB835
:104F9000641CBC42F0DD761C032EC9DD0020F5E761
:104FA00084080020A0000020240D00201EBCBDE8C5
:104FB000E08F000038B5294C0522D4E90001FFF745
:104FC000A9FF00283CD026A0FFF7FCFC0522616861
:104FD0002069FFF79FFF002834D029A0FFF7F2FCDB
:104FE000D4E901100522FFF795FF00282CD02FA04F
:104FF000FFF7E8FC05226168E068FFF78BFF0028F7
:1050000024D032A0FFF7DEFC0020374A03464FF4DD
:10501000C8711354401C8842FBDB34A0009036A3B7
:1050200031486269FFF7DEFC14222F48A169FFF7BF
:1050300071FF00280CD034A0FFF7C4FC012038BD5C
:105040003BA006E043A004E04CA002E056A000E034
:1050500060A0FFF7B7FC002038BD0000340000203E
:105060005B494E464F5D5B454D57333038305D41AF
:1050700054205465737420506173730D0A0000004E
:105080005B494E464F5D5B454D57333038305D527E
:105090006573657420746F20466163746F72792044
:1050A000537563636573730D0A0000005B494E46D8
:1050B0004F5D5B454D57333038305D41542045637B
:1050C000686F204F66660D0A000000005B494E467F
:1050D0004F5D5B454D57333038305D4D65737361BF
:1050E0006765204F6E0D0A007804002074657261B8
:1050F00062697473000000005465726162697473C0
:105100005F322E34470000005B494E464F5D5B45E1
:105110004D57333038305D5769466920436F6E6EA6
:1051200065637420537563636573730D0A00000033
:105130005B4552524F525D5B454D57333038305DC1
:105140004154204E6F20526573706F6E73650D0A67
:10515000000000005B4552524F525D5B454D573396
:105160003038305D526573657420466163746F72C8
:1051700079204661696C0D0A000000005B455252BF
:105180004F525D5B454D57333038305D41542045BB
:1051900063686F2043616E6E6F74205475726E2069
:1051A0004F46460D0A0000005B4552524F525D5B70
:1051B000454D57333038305D4D65737361676520F9
:1051C00043616E6E6F74205475726E204F4E0D0ADF
:1051D000000000005B4552524F525D5B454D573316
:1051E0003038305D5769466920436F6E6E65637471
:1051F000204661696C0D0A0013B54FF6FF7301225A
:1052000069460248FDF7A4FA00981CBDA40C0020D2
:1052100010B5002821D0114B0022001F196803E0AF
:10522000814203D80A4649680029F9D152B113686E
:10523000841A9C4204D1006818441060104602E0B1
:10524000506000E0186039B102680B1A934203D134
:105250000B681A4402604968416010BDF0000020EC
:105260002DE9F04393B00F46804691462C2102A8C9
:10527000FAF7F3FF002414210DA8FAF7EEFF3846E1
:10528000FBF71EF806464046FBF71AF8014612A83F
:105290000DADCDE9005033463A464046FDF782FC5D
:1052A00002AE2A5D06EB440007A1FFF7B3FB641CC6
:1052B000142CF6D32C2202A94846FAF7B5FF13B0F6
:1052C0000020BDE8F08300002530327800000000A7
:1052D0001FB5FBF7BFFDFFF70FF8FDF7F5FAFDF778
:1052E000E9FBFDF723FCFDF73FFCFDF7ADFBFDF708
:1052F0006FFBFDF7FDFBFFF769FA0026A84D40F6AE
:10530000B8384FF0040A4FF0FF344FF4006B40F20E
:10531000DC590127287908B1FEF7A4FD6879072830
:105320007BD2DFE800F07A04284DACC4FD009DA0DC
:10533000FFF748FBAE70EE70E86ACDE9000405F1B6
:105340002000029403940DC80121FEF757FC01F0E0
:105350005DFD10B1974801F0DDFC2E63287900282F
:10536000D8D14FF47A70FBF757FC286B401C2863A8
:105370001E28F3DBCEE790A0FFF724FB286A401C31
:105380002862E96ACDE9001402940394D5E909235F
:105390000221FEF733FC01F039FD10B1854801F020
:1053A000B9FC002259468948AC60FBF740FD02E099
:1053B0006420FBF731FCA8680028F9D10320BDE088
:1053C00083A0FFF7FFFA4FF49670E860E86ACDE932
:1053D000000405F12000029403940DC80321FEF798
:1053E0000DFC01F013FD10B1724801F093FC6E70DA
:1053F0002E700DE07BA0FFF7E5FA286AFEF740FE6D
:1054000001227F497F48FDF7D1F84046FBF704FCB5
:10541000287869780843EDD006E0BBE07AA0FFF772
:10542000D1FA4046FBF7F8FB68780028F6D0D5E9BA
:105430000623E86A69698DE80F0005F12000032161
:105440000DC8FEF7DBFB01F0E1FC10B1594801F09B
:1054500061FC05206871696A6869084301D185F8B3
:1054600005A0A96AA869084301D185F805A0E96AE1
:10547000E86908437FF47EAF85F805A04AE76CA091
:10548000FFF7A0FAD5E90623E86A69698DE80F00FD
:1054900005F1200004210DC8FEF7B0FB01F0B6FCB9
:1054A00010B1444801F036FC42F2107061E066A091
:1054B000FFF788FAD5E90623E86A69698DE80F00E5
:1054C00005F1200005210DC8FEF798FB01F09EFCB8
:1054D00010B1384801F01EFC002259463B48AC6030
:1054E000FBF7A5FC02E06420FBF796FBA868002808
:1054F000F9D1686928B9686AFFF76AF8686A401ED6
:105500006862A86928B9A86AFEF772FFA86A401EF7
:10551000A862D5E90623E86A69698DE80F0000E012
:105520000EE005F1200005210DC8FEF767FB01F034
:105530006DFC10B11F4801F0EDFB06206871E9E633
:1055400045A0FFF73FFAD5E90623E86A69698DE8C7
:105550000F0005F1200006210DC8FEF74FFB01F0FA
:1055600055FC10B1134801F0D5FBA87820B12E628C
:1055700004E0FBF751FBCDE6E87848B16F710022FB
:1055800059461248C5F80890FBF751FC4846F0E729
:105590000220D3E735A0FFF715FA6F71BAE60000D5
:1055A000000000205B494E464F5D5B49444C455D21
:1055B0000D0A0000E80200205B494E464F5D5B4348
:1055C000415252595F494E5D0D0A000000040048E7
:1055D0005B494E464F5D5B43414D4552415D0D0A6F
:1055E000000000005B494E464F5D53656E642043EA
:1055F000616D65726120526571756573740D0A0085
:10560000A3000020240C00205B494E464F5D5B4305
:10561000414D5D57616974696E6720466F72204322
:10562000616D65726120526573756C740D0A0000BE
:105630005B494E464F5D5B574149545F535550504F
:105640004C595D0D0A0000005B494E464F5D5B44BE
:105650004F424F545D0D0A005B494E464F5D5B4320
:10566000415252595F4F55545D0D0A005B455252ED
:105670004F525D556E6B6E6F776E2052756E5F5335
:10568000746174650D0A0000F0B50B30154D20F003
:1056900007010024144A0FE003688B420BD38B42AE
:1056A00005D95E1A43184768C3E9006700E04368FC
:1056B000136002C004E0021D10680028ECD12046EF
:1056C000002802D1286808B10020F0BD064A07482A
:1056D0001060074A121A22F00702C0E900240120D4
:1056E0002860D7E7F4000020F0000020FC3C0020F8
:1056F000F83E00202DE9F04F0A689BB012BA22F064
:10570000FF0CCA784CEA020CCDF864C04A6812BAA1
:1057100022F0FF06CA79164316968A6812BA22F05A
:10572000FF06CA7A16431596CA6812BA22F0FF0C11
:10573000CA7B4CEA020CCDF850C00A6912BA22F0BA
:10574000FF06CA7C16430E964A6912BA22F0FF0C75
:10575000CA7D4CEA020CCDF834C08A6912BA22F034
:10576000FF06CA7E16430C96CA6912BA22F0FF05DC
:10577000CA7F15430A950A6A12BA22F0FF0691F809
:10578000232046EA020E4A6A12BA22F0FF0691F876
:105790002720164308968A6A12BA22F0FF0691F86B
:1057A0002B2016430796CA6A12BA22F0FF0791F817
:1057B0002F2017430A6B12BA22F0FF0591F833200D
:1057C00091F8373045EA020A4A6B91F83B4012BA29
:1057D00022F0FF021A438B6BD0F808C01BBA23F0EB
:1057E000FF032343CC6B91F83F10CDF84CC0C66843
:1057F000129603960569E346119524BAD0F814C0B1
:1058000024F0FF040C43CDF860C081690B918846F9
:1058100085EA0C013140E14681EA0C01DDF864C003
:1058200001EBFB660CEB08010E44FE4906EB010898
:10583000039ECDF800804FEAB60603966E4006EA56
:105840000B066E4006EBF868169E4FEABB0B4E4403
:10585000464406EB0108CDF80480039EDDF8008085
:105860008BEA060C0CEA080C8CEA060CDDF80480C6
:10587000159E0CEBF86C3544DDF8008065444FEA6A
:10588000B809DDF8048089EA0B0605EB010C06EA8D
:10589000080686EA0B0606EBFC65CDF808C0DDF8C5
:1058A00050C0039E6644354405EB010CCDF80CC096
:1058B0004FEAB805DDF808C085EA090808EA0C08CF
:1058C000DDF80CC088EA09080E9E08EBFC685E440F
:1058D000464406EB0108DDF808C0CDF810804FEA19
:1058E000BC060296DDF80CC06E4006EA0C066E405F
:1058F000DDF834C006EBF8680CEB090646440E44AC
:105900000096DDF80CC0029E4FEABC0BDDF810805B
:105910008BEA060C0CEA080C8CEA060C009E4FEA97
:10592000B8090CEBF66C0C9E89EA0B083544009E16
:10593000654405EB010C08EA0608029E0A9DCDF8B5
:1059400004C088EA0B08354408EBFC6C654405EBA1
:10595000010C009ECDF808C04FEAB605DDF804C082
:1059600085EA090606EA0C06DDF808C086EA09069B
:1059700006EBFC680EEB0B064644DDF804C006EBB4
:10598000010B4FEABC060196DDF808C06E4006EA3E
:105990000C066E4006EBFB6C089E4E44664406EB1C
:1059A0000108DDF808C0019E4FEABC0989EA060C2F
:1059B0000CEA0B0C8CEA060C079E4FEABB0B354435
:1059C0000CEBF86C8BEA0906654406EA080605EB61
:1059D000010C86EA090606EBFC65019ECDF81080F5
:1059E0003E4435446E184FEAB805049585EA0B0528
:1059F00005EA0C05019685EA0B0505EBF6660AEB50
:105A000009053544CDF800C06E18DDF800C00296D7
:105A1000049D4FEABC0C019E8CEA050808EA0608C2
:105A2000029E88EA050808EBF66502EB0B06354492
:105A3000019E05EB01094FEAB60B029E8BEA0C05AD
:105A4000354085EA0C0505EBF966049D1D44354497
:105A5000029E05EB01084FEAB606029686EA0B069F
:105A600006EA090686EA0B0606EBF86504EB0C0667
:105A700035446E180096DDF864C0159ECDF8108090
:105A80004FEAB90982EA0E0586EA0C067540029EC5
:105A9000DDF8108089EA060C0CEA080C8CEA060C8A
:105AA000009E4FEAF5750CEBF66619952E4406EB51
:105AB0000B056E180196089E4FEAB80583EA0608A2
:105AC000DDF850C0169E8CEA060C88EA0C0B009E8E
:105AD00085EA090808EA0608019E88EA090808EB31
